:1000000080311228013008007E1480310B1F102827
:100010002100111C10282000111C10289031E5200F
:100020007E10090080311428FC3084008A3085005D
:10003000E2308600223087000030FF005A309031D5
:10004000242080310230840093308500A030860067
:10005000003087000030FF002030903124208031B4
:10006000F83084009530850020308600013087000C
:100070000030FF0022309031242080313C30840059
:1000800023308500B430FE000030FF00903118208E
:100090008031FA01FB01DC01DD01DE01DF01E0015D
:1000A000E101E201E301C0308400003085000E3040
:1000B000FE000030FF00903118207E1020008331B8
:1000C0008A2BBC003C088600013087000130423F8B
:1000D000B4003C088600013087000130433FBB007C
:1000E00010303B0203187A280C30AF002F08BA00FA
:1000F000B70182280830AF002F08BA000430AF00E3
:100100002F08B70021004703031D942820003B0857
:10011000AF00B0013A0A8E28AF35B00D890B8C289C
:100120002F08BD003008A82820006008AF00B001EB
:100130003008B20034082F02B100031CB2033A0A9F
:10014000A328B135B20D890BA1283108BD003208B2
:10015000BE005F08A1005E08A00021004108200049
:10016000A300210040082000A2005D08A5005C0853
:10017000A4003A08AF002F08A6008D31AD258031CC
:100180002008BD072108BE3D03303B02031CF428B4
:100190003C0A8600013087000103031DDE283E086B
:1001A000F3003D08F2003B08AF00B0012F08F40057
:1001B0003008F5003708B1003108EC283E08F3009C
:1001C0003D08F2003B08FF3EF400FF30031800300A
:1001D000F5003708AF002F08F6008831FC20803189
:1001E0007308BE007208BD0010303E0201300319D2
:1001F0003D02031CFF280030BD001030BE003C0A49
:100200008600013087000108031D5B293C08043E7D
:1002100086000130870001080F3903195B29B801F6
:10022000B9013C08043E86000130870001080F39FF
:10023000AF00B0012F08B5003008B600350836040D
:1002400003192B290130B5020030B63B2830B8071E
:100250000030B93D1E2939083E02031D31293808F6
:100260003D0203183629BD01BE013C2938083D0274
:10027000BD0039083E3BBE003E08F3003D08F200D9
:100280003908B0003808AF00AF35B00D0030B1000C
:100290001030B2002F083102F4003008323BF50074
:1002A0000C30B3003308F6008831FC20803173082D
:1002B000BE007208BD003E08B0003D08AF006308F4
:1002C0000C3C890A6529B036AF0C890B63292F08CD
:1002D000BD003008BE000130AF000030B000630A3E
:1002E0007329AF35B00D890B71292F08FF3EB1007E
:1002F000FF30303DB2003E083202031D81293D0827
:100300003102031893290130AF000030B000630AB6
:100310008B29AF35B00D890B89292F08FF3EBD0011
:10032000FF30303DBE003E08AE003D08AD00080085
:10033000D400D101CD01CE010230540203180800CF
:10034000540EF0395407203EC9004908D500550A1B
:1003500086000130870002300102031CB8295508CD
:10036000043E860001308700D030010203180800E7
:100370005508043E8600013087000108C90004309A
:10038000C936890BC02949080F39CA004A08E30059
:100390000130C9000030CA00630AD029C935CA0D2E
:1003A000890BCE2949082100C20020004A082100FB
:1003B000C300200055088931F521813155080E3ED2
:1003C0008600013087003008C03F3108C13F550822
:1003D000063E860001308700403FC900413FCA0009
:1003E00055080E3E860001308700403FCB00413F5C
:1003F000CC004A084C02031DFF2949084B02031C8C
:100400004A2A5508103E8600013087000330010556
:10041000C90002304906031D102ACE01CE0A4A2A1D
:100420005508023E8600013087000108C900CA0154
:100430004908D2004A08D30052089731BE278131BB
:10044000003A03192D2ACE01CE0A5408C9004908E2
:10045000F2009F31AD2781314A2A5208013ED20075
:100460000030533DD3005508033E8600013087001D
:100470005508023E84000130850000080107C900CC
:10048000CA01CA0D4A085302031D482A49085202EC
:10049000031C1C2A4E08031D782A55080E3E8600B0
:1004A000013087000030C03FC13F5508103E860034
:1004B0000130870003300105C90002304906031DE1
:1004C000702A5508103E8600013087008101810A9C
:1004D0005408C9004908F2009F31AD278131A32A91
:1004E0005508103E8600013087008101810AA32A49
:1004F00055089731412781314008D0003F08CF008F
:1005000055080C3E860001308700403FC900413F3E
:10051000CA0050084A06031D8F2A4F0849060319CE
:10052000A12A511555080C3E8600013087004F085E
:10053000C03F5008C13F5408C9004908F2009F312C
:10054000AD27D114D1175108C9005508103E8600B7
:10055000013087004908810051088239C9004908E3
:10056000CD044D08C90049082100C80408002F081F
:100570008600300887004A310108803AB1002F0810
:100580008600300887004F310103FF3A803AB102FC
:100590000318FC2A2F088600300887004B310130F1
:1005A000810741310318810A2F088600300887002F
:1005B0004B31403FB100413FB200003032020930C0
:1005C00003193102031C462B2F08860030088700D0
:1005D0004B310030C03FC13F2F08860030088700F4
:1005E000010888311B2082313008F9002F08F800FB
:1005F0009F31B7278231462B2F08860030088700AD
:100600004A310108B100B201B11BB2032F088600C4
:10061000300887004F313208803A803C031D122B8E
:100620003108010203183D2B20002F0886003008F6
:100630008700433101080319272B3008A5002F0834
:10064000A400853104258231003A031D08002000F2
:100650002F08023EB1000030303DB2003108860064
:1006600032088700023081002F088600300887009A
:100670004B310030C03FC13FF42A20002F088600D4
:10068000300887004B310030C03FC13F20002F08A9
:10069000860030088700433101080319642B3008B5
:1006A000A5002F08A400853104258231003A0319E2
:1006B000642B20002F088600300887004D31FF3062
:1006C000C03FFB30C13F080020002F0886003008E3
:1006D00087004D310130810741310318810A2F080D
:1006E0008600300887004D311600403AB1001600F0
:1006F000B104031D08002F088600300887004D3123
:100700000030C03FC13F3008F3002F08F2008631AF
:10071000D02608009031C02083318B170B17DA01E7
:10072000DB0122000E143230F2000030F300903171
:100730008A20833122000E103230F2000030F300A4
:1007400090318A20833101302100DA070030DB3D0F
:100750005B08803A2000D90080305902031DB32B7A
:100760000A3021005A02031C912B963162268331F4
:10077000003A0319B52B2100DA01DB0121005A08E8
:10078000913135218331003A0319FA2B5A089131FE
:10079000212183315A35CE3E860087017208C03F41
:1007A0007308C13F5A35CE3E86008701403F200086
:1007B000D900413FDA005908F2005A08F300F40169
:1007C000F501003086313B26833121005A08200094
:1007D000DB000130DB35FF3E031DEA2B5B35D23EEB
:1007E000860087017208C03F7308C13F7408C23F8A
:1007F0007508C33F21005A089131A3218331003A83
:10080000031D162C5A082000D9000130D935FF3EAF
:10081000031D062C5935D23E860087010030C03FAB
:100820000030C13F0030C23F0030C33F01302100E3
:10083000DA070030DB3D5B08803A2000D9008030C9
:100840005902031D262C023021005A02031CBE2B24
:1008500021005508F5005408F4005308F30052082D
:10086000F2008D314725833172089F31F82783319B
:100870000430D23E86008701403FF200413FF30042
:10088000423FF400433FF5008D3147258331720824
:100890009F31F8278331FF309F31F8278331B52B03
:1008A00000340534003401340034003400340034A2
:1008B000003400340034003400340034003419347F
:1008C000013401340134093400340134003400347B
:1008D0000034003400340034003400340034003478
:1008E0000034193401340134023408340034013442
:1008F0000034003400340034003400340034003458
:100900000034003400341934013401340334073422
:100910000034013400340034003400340034003436
:10092000003400340034003400341934013401340C
:10093000043406340034013400340034003400340C
:1009400000340034003400340034003400341934EE
:1009500001340134053404340034023400340034EA
:1009600000340034003400340034003400340034E7
:1009700000341934013401340634033400340234B1
:1009800000340034003400340034003400340034C7
:100990000034003400341934013401340734023493
:1009A00000340234003400340034003400340034A5
:1009B000003400340034003400341934013401347C
:1009C000083401340034023400340034003400347C
:1009D000003400340034003400340034003419345E
:1009E000013401340934003400340234003400345A
:1009F0000034003400340034003400340034003457
:100A00000034193401340134240886002508870095
:100A100043310108A6002608AA00240886002508FC
:100A200087004F310108A600A7012508F30024081C
:100A3000F20096313E26853126087202A80027086A
:100A4000733BA9003C30AD002330AE00DE30A60081
:100A50002330A7002E082702031D302D2D08260263
:100A6000031CA12D24088600250887002D0884007A
:100A70002E088500000801060319902D2D08860018
:100A80002E088700433101082A06031D902D2D08EA
:100A9000933122238531003A0319902D2D088600C9
:100AA0002E08870042310330010603196E2D2D08F0
:100AB00086002E08870042310230010603196E2D90
:100AC000702D20002908803AA6002C08803A2602C2
:100AD000031D6C2D2B0828020318902D01300800EF
:100AE0002D0886002E0887004F310108A600A701B7
:100AF0002E08F3002D08F20096313E268531260897
:100B00007202AB002708733BAC002C08803AA600A9
:100B100080302602031D8E2D01302B020318612D1B
:100B200012302000AD070030AE3DDE30A60023308D
:100B3000A7002E082702031D9F2D2D08260203184B
:100B4000322D003008002F0886003008870043311E
:100B500001080319CB2D3008A5002F08A40085310A
:100B600004258531003A0319CB2D20002F08023EC1
:100B7000B1000030303DB2003108860032088700F5
:100B8000013081002F088600300887004B3100308B
:100B9000C03FC13F080020002F08860030088700B2
:100BA0004A310108B100B201B11BB2032F0886001F
:100BB000300887004F313208803A803C031DE22D17
:100BC000310801020318252E20002F088600300866
:100BD00087004B310130810741310318810A2F080A
:100BE0008600300887004B31403FB100413FB200E2
:100BF00000303202043003193102031C1E2E2F086C
:100C0000023EB1000030303DB200310886003208AB
:100C10008700033081002F088600300887004B31A1
:100C20000030C03FC13F2F08860030088700010810
:100C3000B1003108F2009F31AA2785313008F90050
:100C40002F08F8009F31B727080020002F08023E28
:100C5000B1000030303DB200310886003208870014
:100C6000013081002F088600300887004B310030AA
:100C7000C03FC13F0800A0002008031DF51F502EF3
:100C80007209A2007309A3007409A4007509A500E4
:100C9000A20A0319A30A0319A40A0319A50A582EC4
:100CA0007508A5007408A4007308A3007208A200C8
:100CB0007508740473047204031D672E0030F50078
:100CC0000030F4000030F3000030F20008009630ED
:100CD000F6007608A100FE30250503198E2E01309E
:100CE000F6007608A1070130A536A40CA30CA20CCF
:100CF000890B742E6B2E0130F6007608A1070130A7
:100D0000A2070030A33D0030A43D0030A53D0130D6
:100D1000A536A40CA30CA20C890B882EFF30250548
:100D20000319A02E7B2E02302102031CA22E0130BB
:100D3000A1020130A235A30DA40DA50D890B9A2E99
:100D4000A41F932E2118AC2EFF30A205FF30A3055F
:100D50007F30A405FF30A5050310A10C2108F60083
:100D6000F701F801F9011830F635F70DF80DF90D16
:100D7000890BB42E7608A2047708A3047808A4048B
:100D80007908A5042008031DF51FC72EA5172508FF
:100D9000F5002408F4002308F3002208F2000800FC
:100DA0008B1F192F8B13720886007308870046313A
:100DB000403FF400413FF500423FF600433FF7005B
:100DC0000430F736F60CF50CF40C890BE12E7208A2
:100DD0008600730887004631740881024131750826
:100DE000813B41317608813B41317708813B7D3140
:100DF00072088600730887004431403FF400413F89
:100E0000F5007408F6007508F700F801F90172089A
:100E100086007308870046317608810741317708DC
:100E2000813D41317808813D41317908813D8B1701
:100E3000080072088600730887004631403FF400BE
:100E4000413FF500423FF600433FF7000430F736DC
:100E5000F60CF50CF40C890B272F7208860073082A
:100E6000870046317408810241317508813B413168
:100E70007608813B41317708813B7D3172088600DD
:100E8000730887004431403FF400413FF500740887
:100E9000F6007508F700F801F9017208860073087A
:100EA000870046317608810741317708813D41311D
:100EB0007808813D41317908813D0800720886003B
:100EC000730887004631403FA000413FA100423FE8
:100ED000A200433FA3000430A336A20CA10CA00C37
:100EE000890B6C2F72088600730887004431403FDD
:100EF000A400413FA5002408A6002508A700A801DA
:100F0000A9012008A6022108A73B2208A83B230824
:100F1000A93B2908F7002808F6002708F50026084D
:100F2000F4007408A0007508A1007608A2007708F4
:100F3000A30072088600730887005031010AA42FAD
:100F4000A337A20CA10CA00C890BA02F2308F7003B
:100F50002208F6002108F5002008F400F71BC52F31
:100F60007708031DBD2F7608031DBD2F7508031DCF
:100F7000BD2F80307402031CC52F0030F7000030F5
:100F8000F6000030F5007F30F400F71FD92F8030D5
:100F90007402FF30753BFF30763BFF30773B031820
:100FA000D92FFF30F700FF30F600FF30F50080301A
:100FB000F40072080A3E2000A0000030733DA1003A
:100FC000200886002108870074088100080020009E
:100FD000990163309700C030960011101708210066
:100FE000DF00200016082100DE001114A830F200F6
:100FF0001F30F3009F31C027053020009800080003
:10100000F601F701721C08287408F6077508F73D09
:101010000130F435F50D890B09280130F336F20C57
:10102000890B0E2872087304031D02287708F30049
:101030007608F2000800A4002408A000A1012008FE
:10104000F2002108F3001230F4000030F50088317E
:10105000002088313C30A2002330A3007208220710
:10106000A5007308233DA6002508860026088700F2
:10107000423181012508063EA0000030263DA10036
:1010800020088600210887000030C03FC13FC23FD2
:10109000C33F25088600260887004B310030C03F3B
:1010A000C13F25088600260887004D310030C03F2B
:1010B000C13F2508860026088700413101089F317D
:1010C000A92708000530AD002D08AE002C08F3005C
:1010D0002B08F20090313E208831003A031D792818
:1010E000003008000130AE022E08031D7928FC30C4
:1010F00008002C08A5002B08A4008B31B8238831E8
:10110000003A031D72282B0886002C088700463100
:10111000403F21004402F200413F453BF300913142
:101120007421883100307302653003197202031C88
:10113000A22820002C08F3002B08F2009F31DC27A6
:101140008831702820002C08F3002B08F2009F3112
:10115000E327883170282508860026088700423159
:1011600001080319EA28250886002608870044316B
:10117000403FA700413FA8000430A836A70C890BC8
:10118000BD282508860026088700443127088102EB
:1011900041312808813B7F312508860026088700D9
:1011A0004131010896311A2688317808A70079085C
:1011B000A8000430A836A70C890BDA282508860079
:1011C0002608870044312708810741312808813DDE
:1011D0007F31080025088600260887004131010874
:1011E00096311A262508860026088700443178089B
:1011F000C03F7908C13F0800F801F9010130F7004C
:101200007708F60774087504031D0D293E2901307F
:10121000F6027235F200730DF300F31B1B297608FA
:1012200003191B2907290130F7007708F6077435E1
:10123000F400750DF500F51B392913297835F800F0
:10124000790DF9000130F60275087302031D2A2991
:1012500074087202031C34297408F2027508F33B07
:101260000130F8070030F93D0130F536F40C890BF8
:1012700035297608031DF91B42291E29FF30F80085
:10128000FF30F900760803194929FF30F800FF30D4
:10129000F9007908F3007808F2000800AF00AC010B
:1012A000AD012F088600013087000130423FE00089
:1012B0002F088600013087000130423FAE002F0822
:1012C000033E8600013087002F08023E8400013073
:1012D000850000080107A600A701A70D2E08A80099
:1012E000A90127082902031D7729260828020318C7
:1012F0009C292E089231A2228931AA00AB01AA1B97
:10130000AB032D08803AA6002B08803A2602031D65
:101310008B292A082C020318962920002E08A600E3
:101320002608E0002B08AD002A08AC0001302000A0
:10133000A6002608AE075F292D08A5002C08A400EA
:101340000800A60026088600013087000130423FD1
:10135000A7002100C701200060082706031DE2291D
:10136000260A8600013087000103031DDF292608B5
:10137000033E86000130870001082707FF3E9231B7
:10138000A2228931DE00DF01DE1BDF032708013ED8
:101390009231A2228931DC00DD01DC1BDD035D0816
:1013A000803AF9005F08803A7902031DD9295E0866
:1013B0005C020318EB292100C701C70AEB29DE01F3
:1013C000DF01EB296008FF3E9231A2228931DE0065
:1013D000DF01DE1BDF032000DF1FF029DE01DF015C
:1013E0005F08A5005E08A4000800B6003608893131
:1013F0004E21893125082100C10020002408210048
:10140000C000200036089731062789312508DD0005
:101410002408DC0036088931A12189312508DF0044
:101420002408DE005F08803AB2005D08803A32028C
:10143000031D1C2A5C085E020318262A20005C0893
:10144000210040072000B4005D082D2A20005E081E
:10145000210040072000B4005F082100413D20002A
:10146000B5003608063E860001308700403FB200D6
:10147000413FB30033083502031D402A32083402CD
:101480000318442AB401B5013508B1003408B0008E
:101490000800A500210043082000A1002100420807
:1014A0002000A000A136A00C2008A6002108A7005B
:1014B00072087402A8007308753BA900250A86000B
:1014C000013087000103031D9C2AA91F862AA00161
:1014D000A10126082002A2002708213BA300290819
:1014E000803AA4002308803A2402031D792A2208A6
:1014F000280203189C2A2000280821004207200007
:10150000A80029082100433D20009B2A2708803A93
:10151000A0002908803A2002031D902A28082602EC
:1015200003189C2A2100420820002802A80021005C
:1015300043082000293BA90020002908F3002808BF
:10154000F200080024088600250887004231033095
:101550000106031DC82A24088600250887004B3190
:101560000130810741310318810A240886002508CB
:1015700087004B3116000104031D08002408860073
:10158000250887004B31FF30C03FFF30C13F0800C6
:101590002408860025088700423105300106031D16
:1015A000080024088600250887004B310130810798
:1015B00041310318810A24088600250887004B3131
:1015C000403FA600413FA7000030270240300319EA
:1015D0002602031C080024088600250887004B31DA
:1015E0000030C03FC13F24088600250887004131F4
:1015F0000108923164220800003485341334CF345A
:10160000143420340034003400340134A63413344C
:10161000F034143420340034003400340234C7343D
:1016200013341134153420340034003400340334BE
:10163000E8341334323415342034003400340034A8
:101640000434093414345334153420340034003451
:10165000003405342A3414347434153420340034FE
:101660000034003406344B341434953415342034AB
:1016700000340034003407346C341434B634153478
:10168000203400340034003408348D341434D7341A
:1016900015342034003400340034093464341334F5
:1016A000AE34143420340034003400342F08860063
:1016B000300887004B31403FB100413FB20001305C
:1016C0003202F43003193102031C792B2F088600F3
:1016D00030088700010888311B208B312F088600D5
:1016E000300887000108B1003108F2009F31AA27B5
:1016F00008002F088600300887004A310108803A28
:10170000B1002F088600300887004F312F08840071
:10171000300885000F310008B2002F08840030081F
:1017200085001131000A952BB236890B942B3208B3
:101730000102803AB102031808002F08023EB100EE
:101740000030303DB2003108860032088700043096
:1017500081002F088600300887004B310030C03FE1
:10176000C13F3008F9002F08F8009F31B727080063
:10177000AA0121001D082000A6002608A7002100BC
:101780001E082000A6002608A8009F31BB278B3129
:1017900000308B1B01302000A9002508F30024082D
:1017A000F2009031F9208B312000240886002508B2
:1017B00087000108A60026082100CC00200024088C
:1017C00086002508870045310108A6002608E100AB
:1017D0002100C401C5012000621090316A208B31C4
:1017E000A60026082100CB00C401C5012000E2109C
:1017F0008B138C31E1248B31290C031C8B130318C0
:101800008B1790310D208B3121009D18042C200066
:10181000621CF82B270821009D00200028082100C9
:101820009E002000E21C182CFA30A6002608AA0010
:101830002A080800B9003908B500B6013508F200D9
:101840003608F3001230F4000030F5008831002033
:101850008C313C30B7002330B80072083707BA002B
:101860007308383DBB003A0886003B0887004131C9
:101870000108933143238C31003A031908003A08D8
:1018800086003B08870041310108803102208C31FD
:10189000003A031908003B08AA003A08A900903151
:1018A0009C208C313B08F3003A08F20087315E2718
:1018B0008C313A0886003B0887004231073001022C
:1018C000031C6A2C3A0886003B088700010888310F
:1018D0001B208C313B08B0003A08AF003A08860064
:1018E0003B08870042310135A03E86008701413F19
:1018F0008A00403F0A008C310800B3003308AF0073
:10190000B0012F08F2003008F3000930F400003075
:10191000F500883100208C31E230B1002230B20075
:1019200072083107B5007308323DB6003608AC00C6
:101930003508AB00883162208C31AF002F08B4002D
:10194000C22C3608F3003508F20090313E208C316D
:10195000003A0319DF2C3608F3003508F200913104
:10196000BC218C3120003608F3003508F2009F318D
:10197000EA278C313308AF002F08F2009F31AC27E3
:101980008C31DF2C3408AF00B001AF1BB00330083E
:10199000003A0319CF2CFF3A0319D42CDF2C2F085F
:1019A000003A0319A12CDF2C2F08FD3A0319DF2C74
:1019B000033A0319DF2C013A0319DF2CDF2C34081A
:1019C000080021001C08F9001B08F800200062181C
:1019D00008006108031DFB2C3F2D21003B088A00F5
:1019E0003A080A008C310C2D210039088A00380889
:1019F0000A008C310C2D61080139A000A1012108D9
:101A0000003A0319042D0C2D2008003A0319ED2C7F
:101A1000013A0319F42C0C2D21004C082000A000E1
:101A2000A1012008F2002108F3000930F400003081
:101A3000F500883100208C31E730A2002230A3006D
:101A40007208220786007308233D8700010861069B
:101A500003193B2D611C362D0030A0000430A1007D
:101A600078082002F8007908213BF9007808210065
:101A7000C4077908C53D01302000E102080078085C
:101A80002100C4077908C53D200062140800031036
:101A9000740D750D2000A0002008F7007708031DC5
:101AA0005A2D0030F5000030F4000030F300003013
:101AB000F20008007208A0007308A1007408A200D8
:101AC0007508A3001F30A336A20CA10CA00C890B33
:101AD000632D2008A4002408F600F417FF30F20557
:101AE000FF30F305FF30F4050030F5059630F702BE
:101AF000F71F8D2D7708803A973E031C512D01303A
:101B0000F536F40CF30CF20C890B802D0130A0009B
:101B10002008F70703199E2D7F2D20307702031828
:101B2000512D770803199E2D0130F235F30DF40D78
:101B3000F50D890B952D0130F702912D76080319CB
:101B40000800F209F309F409F509F20A0319F30A86
:101B50000319F40A0319F50A080025082102031DD8
:101B6000B32D24082002031CE92D2508A800240811
:101B7000A700A735A80D27082202A9002808233BA3
:101B8000AA0020082907AB0021082A3DAC0001303B
:101B9000A7000030A800260ACF2DA735A80D890B75
:101BA000CD2D24082202F2002508233BF3002C0847
:101BB000F5002B08F4002608A9002908F600883152
:101BC000FC208D3127087202AB002808733BAC0063
:101BD0000F2E2108A8002008A700A735A80D270868
:101BE0002202A9002808233BAA0024082907AB00E9
:101BF00025082A3DAC0020082402F2002108253BDC
:101C0000F3002C08F5002B08F4002608A70027088D
:101C1000F6008831FC207308AC007208AB002C0879
:101C2000A1002B08A00008002F08860030088700BC
:101C30004B31403FB100413FB20000303202093029
:101C40000319310203182C2E3008A6002F08A50016
:101C50009631D9268E31332E3008F3002F08F2004A
:101C60008631D0268E312F088600300887004B3110
:101C70000130810741310318810A2F08860030089E
:101C800087004B31403FB100413FB200003032028B
:101C9000103003193102031C7E2E2F0886003008F5
:101CA00087004631403FB100413FB200423FB300A0
:101CB000433FB4000430B436B30CB20CB10C890B02
:101CC0005B2E2F0886003008870044313108C03F62
:101CD0003208C13F2F08023EB1000030303DB20053
:101CE0003108860032088700013081002F08860005
:101CF000300887004B310030C03FC13F3008F90049
:101D00002F08F8009F31B7270800AE002E080A3EC2
:101D1000860001308700403FAF00413FB0003008EF
:101D2000F3002F08F2002B08F5002A08F4002E0813
:101D30008A3149228E317308B4007208B30033032C
:101D400034040319A92E330A031DAE2E340A031DD1
:101D5000AE2E3008AD002F08AC00F32EB41FCF2EEE
:101D6000F601F70133087602B3003408773BB4007C
:101D70003408B2003308B1003208F7003108F60029
:101D8000F736F60C7608B1007708B200F601F701D5
:101D900031087602B3003208773BB400E12E3408F4
:101DA000B2003308B1003208F7003108F600F73608
:101DB000F60C7608B1007708B2003208B40031089A
:101DC000B3002F083307AC003008343DAD002100CC
:101DD0004208FF3EF600FF30433DF7007608200042
:101DE000AC057708AD052D08AB002C08AA0008004B
:101DF0002F088600300887004A310108803AB10078
:101E00002F088600300887004F312F0884003008E3
:101E100085000F310008B2002F08840030088500CB
:101E20001131000A142FB236890B132F3208010228
:101E3000803AB1020318652F2F088600300887000A
:101E40004B310130810741310318810A2F08860088
:101E5000300887004B31403FB100413FB2000030B5
:101E60003202043003193102031C5E2F2F08023E98
:101E7000B1000030303DB2003108860032088700E2
:101E8000013081002F088600300887004B31003078
:101E9000C03FC13F2F088600300887004D31FF301A
:101EA000C03FFB30C13F2F08860030088700010883
:101EB000B1003108F2009F31AA278E313008F900B5
:101EC0002F08F8009F31B72708002F08023EB10005
:101ED0000030303DB2003108860032088700033000
:101EE00081002F088600300887004B310030C03F4A
:101EF000C13F0800B400B1013408860001308700FA
:101F00000130453FB00034080C3E860001308700A8
:101F1000403FAC00413FAD002D08F3002C08F2001B
:101F20002B08F5002A08F40034088A3149228F3141
:101F30007308B3007208B200B31FA82FF601F701AF
:101F400032087602B2003308773BB300B101B10A20
:101F50003103031DCE2F3408093E8600013087006F
:101F60003308803A803C031DB72F32080102031862
:101F7000CE2F20003008F6003408083E86000130DD
:101F80008700760881003408093E8600013087000A
:101F900081012B08AF002A08AE00FB2F200031087A
:101FA000031DF12F3408083E8600013087003308F6
:101FB000803A803C031DDE2F320801020318F12F06
:101FC00020003408083E8600013087008101300877
:101FD000F6003408093E860001308700760881004B
:101FE000C92F200034080C3E860001308700403F96
:101FF000AE00413FAF002F08AB002E08AA0008003A
:1020000016302100970008003F08F1003E08F0005C
:1020100090314C20FB01FB0A080021004B08F20024
:102020007208F3007308031908000130F302122844
:102030006400800101310130FE020030FF3B7F0867
:102040007E04031900341928FE0012001E0001301E
:10205000FE020030FF3B7F087E0403190034252870
:10206000F601760897317F2790310130F500750829
:10207000F60702307602031808003128720873044C
:1020800003194A287208860073088700483101083E
:1020900001390800003008002000181D56281810CB
:1020A00071089700700896001814080071089700CE
:1020B0007008960008002000AA012A0892318222A6
:1020C00090310130A9002908AA070A302A02031812
:1020D00008005D287A1C6E287A3674287A36F20059
:1020E0007208FA007A08B43AF2007208FA007A0824
:1020F0000F390800A8019231C22290312000A700B8
:102100002708A8049F31B4272000A7002708A804A7
:10211000280808000130F2020030F33B720A03196C
:10212000730A031908000B30F4006230890B9628FB
:10213000F40B962800328A288B1FA7288B132A08B5
:10214000A6002908A5008831AB208B1708002A08B3
:10215000A6002908A5008831AB2008002100C8018D
:102160002000D7015708813198219031013020009B
:10217000D6005608D7070230570203180800B228C5
:102180009131D62190319F31F1279031903100204B
:1021900090318731E72790319231E22290319131AD
:1021A0005E2108009F31AE2790312000BD013D081F
:1021B0008C311A24903101302000BC003C08BD074E
:1021C0000A303D0203180800D728111021005F08CB
:1021D000F1005E08F00090314C20903121005C0845
:1021E0005D04031908005D088A005C080A0090314C
:1021F000080072088600730887004131403F2100C3
:10220000BA00413FBB007208860073088700433163
:10221000403FB800413FB9000800F20002307202AE
:1022200003181F29720EF0397207303E8600013004
:102230008700811F1D290130080000300800003090
:102240000800F4000230740203183229740EF039C9
:1022500074072C3E860001308700403FF200413F6A
:10226000F3000800F201F3010800F20002307202EC
:1022700003184729720EF0397207303E860001308C
:102280008700011D4529013008000030080000309A
:1022900008002000B80138088C317D249131003AC3
:1022A00003195429003008000130B7003708B80777
:1022B0000A303802031C4B290130080090315B20A2
:1022C000913192310C229131903130209131923103
:1022D000292291319F31BB2791310430F200103017
:1022E000F3009F31C02708007308803AF400803063
:1022F0007402031D7D29013072020318080072095F
:10230000F4007309F500F40A0319F50A7408F200E1
:102310007508F30008003008F3002F08F20086313A
:10232000D02691312F088600300887004B310030CD
:10233000C03FC13F2F0886003008870041310108A7
:10234000923146220800F300023073020318BA29C2
:10235000730EF0397307303E86000130870003307A
:102360000105F20002307206031DB8290130080091
:1023700000300800003008008B1FCB298B13720837
:10238000860073088700463121004408C03F450895
:10239000C13F8B170800720886007308870046311A
:1023A00021004408C03F4508C13F080022009001B9
:1023B0008C018D018E01083021009000D0308C00FE
:1023C000C0308D00BE308E0023008D0110308C0097
:1023D000240090018D012100951722009D01080025
:1023E000A4002408A000A1012008F2002108F300A5
:1023F0001230F4000030F5008831002091313C307B
:10240000A2002330A30072082207F8007308233DBE
:10241000F9009F31B72708003C30F2002330F30069
:102420005030F4008430F500B430F6000030F7008E
:10243000963188269231A701270888311B209231D6
:102440000130F9007908A7070A30270203180800AD
:102450001C2AE2302000A2002230A3003330A0006A
:102460002330A10023082102031D382A220820025C
:10247000031C08002308F9002208F8009F31D52723
:1024800092310930A2070030A33D2E2AF8000A300D
:102490007802031808007808A000A1012008F200C3
:1024A0002108F3000930F4000030F50088310020E5
:1024B000EA30A2002230A3007208220786007308C7
:1024C000233D870001100800F8000A307802031845
:1024D00008007808A000A1012008F2002108F300FC
:1024E0000930F4000030F50088310020EA30A20005
:1024F0002230A3007208220786007308233D87005C
:1025000001140800A800280892316422923128089A
:10251000A400A5012408F2002508F3000930F40006
:102520000030F500883100209231E230A6002230E0
:10253000A70072082607F8007308273DF9009F31AD
:10254000D5270800F8000A3078020318C02A780856
:10255000A000A1012008F2002108F3001230F400CD
:102560000030F500883100204630A2002330A3005F
:102570007208220786007308233D870001080800BF
:1025800000300800A601260891310D219231003A51
:102590000319D52A260EF0392607223E860001307F
:1025A000870001089131F021923101302000A5000F
:1025B0002508A60702302602031CC32A210048086A
:1025C00080390800083023009F0080309D002430AF
:1025D0009E0044309B009C010030F2000030F3006C
:1025E0009F31CF2792310030F2000030F3009F314D
:1025F000CA2792310030F2000030F3009F31C52726
:10260000C601080014340E34B7340234A334053440
:1026100056340B34F8340E348B341134AB341F344D
:10262000AD341F34AD341F34AD341F34AA341F34DD
:10263000AA341F34CF34143485341334AC341F34EB
:10264000BF346334F8000A3078020318412B78084D
:10265000A000A1012008F2002108F3000930F400D5
:102660000030F50088310020EA30A2002230A300BB
:102670007208220786007308233D8700010801398C
:10268000080000300800F8000A3078020318622BB6
:102690007808A000A1012008F2002108F300093009
:1026A000F4000030F50088310020EA30A20022302A
:1026B000A3007208220786007308233D8700010CDF
:1026C000013908000030080022008C142100053078
:1026D0009D000A30890B6A2B00328C308400003058
:1026E00085000C30860001308700013000149D0009
:1026F00081160530890B7A2B000021009D140032D1
:10270000000022000C140010080022000C1421000C
:1027100001309D000A30890B8B2B00328D308400F4
:10272000003085000C308600013087003130001405
:102730009D0081160530890B9B2B000021009D1404
:102740000032000022000D140010080022000D14B9
:10275000210031309D000A30890BAC2B00328D30C6
:102760008400003085000C3086000130870029305D
:1027700080149D0081160530890BBC2B00002100C0
:102780009D140032000022008D14801008002200E9
:102790008D14210029309D000A30890BCD2B003289
:1027A0008D308400003085000C30860001308700B9
:1027B000213000159D0081160530890BDD2B0000AE
:1027C00021009D140032000022000D1500110800A8
:1027D00022000D15210021309D000A30890BEE2BBF
:1027E00000328D308400003085000C3086000130CE
:1027F0008700253080159D0081160530890BFE2B42
:10280000000021009D140032000022008D1580116F
:10281000080022008D15210025309D000A30890B0B
:102820000F2C00328D308400003085000C30860083
:10283000013087002D3000169D0081160530890B70
:102840001F2C000021009D140032000022000D16F4
:102850000012080022000D1621002D309D000A30C4
:10286000890B302C00328D308400003085000C3014
:10287000860001308700353080169D0081160530B6
:10288000890B402C000021009D1400320000220022
:102890008D168012080022008D16210035309D0013
:1028A0000A30890B512C00328C30840000308500B6
:1028B0000C308600013087000D3080159D00811698
:1028C0000530890B612C000021009D1400320000AE
:1028D00022008C158011080022008C1521000D307B
:1028E0009D000A30890B722C00328C30840000303D
:1028F00085000C30860001308700093000159D00EE
:1029000081160530890B822C000021009D140032B5
:10291000000022000C150011080022000C152100F7
:1029200009309D000A30890B932C00328C308400D2
:10293000003085000C30860001308700053080149F
:102940009D0081160530890BA32C000021009D14E9
:102950000032000022008C148010080022008C102D
:10296000210005309D000A30890BB42C00328C30D8
:102970008400003085000C30860001308700013073
:1029800000149D0081120530890BC42C0000210029
:102990009D140032000022000C10001008002200DC
:1029A0000C10210001309D000A30890BD52C00321B
:1029B0008D308400003085000C30860001308700A7
:1029C000313000149D0081120530890BE52C000088
:1029D00021009D140032000022000D10001008009C
:1029E00022000D10210031309D000A30890BF62C99
:1029F00000328D308400003085000C3086000130BC
:102A00008700293080149D0081120530890B062D26
:102A1000000021009D140032000022008D10801063
:102A2000080022008D10210029309D000A30890BFA
:102A3000172D00328D308400003085000C30860068
:102A400001308700213000159D0081120530890B6F
:102A5000272D000021009D140032000022000D11DE
:102A60000011080022000D11210021309D000A30C4
:102A7000890B382D00328D308400003085000C30F9
:102A8000860001308700253080159D0081120530B9
:102A9000890B482D000021009D1400320000220007
:102AA0008D118011080022008D11210025309D001C
:102AB0000A30890B592D00328D308400003085009A
:102AC0000C308600013087002D3000169D008112E9
:102AD0000530890B692D000021009D140032000093
:102AE00022000D120012080022000D1221002D30CC
:102AF0009D000A30890B7A2D00328D308400003021
:102B000085000C30860001308700353080169D002E
:102B100081120530890B8A2D000021009D1400329E
:102B2000000022008D128012080022008D12210068
:102B300035309D000A30890B9B2D00328C3084008B
:102B4000003085000C308600013087000D30801584
:102B50009D0081120530890BAB2D000021009D14D2
:102B60000032000022008C118011080022008C111C
:102B700021000D309D000A30890BBC2D00328C30B5
:102B80008400003085000C30860001308700093059
:102B900000159D0081120530890BCC2D000021000D
:102BA0009D140032000022000C11001108002200C8
:102BB0000C11210009309D000A30890BDD2D0032F7
:102BC0008C308400003085000C3086000130870096
:102BD000053080149D0081120530890BED2D000019
:102BE00021009D140032000022008C10801008008B
:102BF0000034003400340534723405346434003455
:102C00000034003400340034003400340034003424
:102C1000003401340034053405347234053464342E
:102C20000034003400340034003400340034003404
:102C300000340034A4000A30240203183B2E240878
:102C4000A000A1012008F2002108F3000930F400DF
:102C50000030F50088310020E830A2002230A300C7
:102C60007208220786007308233D8700403FF80062
:102C7000413FF9000800F801F901080072088600D8
:102C8000730887004631403FF400413FF500423F62
:102C9000F600433FF7000430F736F60CF50CF40C61
:102CA000890B4C2E72088600730887004431403F20
:102CB000F800413FF90074087802F2007508793B8A
:102CC000F300080021004D0803196A2E91315E219E
:102CD0009631CD017B080319732E9131492196312C
:102CE000003A031D752E003008009031D220963135
:102CF0009031AE20963190317A209631D800580824
:102D0000FB009231292296319F31B1270130080012
:102D10007508A4007408A3007308A2007208A1003B
:102D20000130F6020030F73B760A0319770A0319DF
:102D3000080023088400240885000008F8007808AB
:102D4000A0000130A3070030A43D2108860022081E
:102D50008700200881000130A1070030A23D902E9D
:102D6000AE012E08A800A9012808F2002908F300E6
:102D70001230F4000030F5008831002096313C30EC
:102D8000AA002330AB0072082A07AC0073082B3D61
:102D9000AD002D08A5002C08A4008A31A22296318E
:102DA0000130A8002808AE070A302E0203180800D8
:102DB000B12E25088600260887004131010896318A
:102DC0001A2696317808A7007908A800A901AA0157
:102DD000250886002608870046312708C03F2808B6
:102DE000C13F2908C23F2A08C33F2508860026089C
:102DF00087004631043081354131810D4131810DEB
:102E00004131810D7D31890BFB2E0800AB002B0871
:102E10008600013087000130423FAA002B08033EA4
:102E20008600013087002A080107A600A701A70D28
:102E30002608FF3EA800FF30273DA90060082806AD
:102E40002904031D2F2F2B0A860001308700010360
:102E5000031D2C2F2A08312FDC01DD01382F6008DB
:102E6000013E9231A2229731DC00DD01DC1BDD0343
:102E7000DD1F3C2FDC01DD015D08A5005C08A4001E
:102E80000800C80048088031612097312E08C7002B
:102E90002D08C6004808103E860001308700033028
:102EA0000105C1000230410603195A2F4708C50029
:102EB0004608652F4708AB004608AA0048088E312F
:102EC000852697312B08C5002A08C40048080A3E09
:102ED0008600013087004608C03F4708C13F4508CB
:102EE000AB004408AA0048088F317A272B08C3009A
:102EF0002A08C2004308C0004208BF000800F300CF
:102F00000230730203180800730EF0397307203E75
:102F1000F2007208F4007408103E86000130870049
:102F200081017408083E8600013087008101740821
:102F3000053E8600013087000108F2007408093E52
:102F40008600013087007208810074080A3E8600FE
:102F5000013087000030C03FC13F74080C3E86003E
:102F6000013087000030C03FC13F74080E3E86002C
:102F7000013087000030C03FC13F0800F9000A302F
:102F800079020318FE2FF801F80A7908A000A101C0
:102F90002008F2002108F3001230F4000030F500A0
:102FA0008831002097313E30A2002330A300720800
:102FB000220786007308233D8700033001060319AA
:102FC000FC2F7908A000A1012008F2002108F300DD
:102FD0001230F4000030F500883100203E30A200AD
:102FE0002330A3007208220786007308233D870060
:102FF00004300106031DF8017808080000300800BD
:103F50000800080008000800080008002100C90146
:103F600008009631B0260800210049080800210009
:103F7000C901C90A080021009D01A0309E00080067
:103F80007308DD007208DC0008007308E1007208A5
:103F9000E00008007308E3007208E20008007308FC
:103FA0002100E5007208E40008007808860079081E
:103FB0008700483181100800720886007308870066
:103FC00048310115080072088600730887004831DF
:103FD00001110800720886007308870048318114B7
:103FE0000800703021009900980122009601080015
:103FF000F2002000111EF92F720823009A00080019
:020000040001F9
:08000000FF3FFF3FFF3FFF3F00
:04000E00E43DFF3F8F
:00000001FF
