:10000000803112287B0808007E1480310B1F1028D5
:100010002100111C10282000111C10289C31532491
:100020007E10090080311428393084009730850013
:1000300038308600233087000030FF0063309B316A
:10004000642380317530840092308500A0308600B2
:10005000003087000030FF0031309B316423803155
:100060009B308400233085005530FE000030FF00B7
:100070009B3158238031FA01FB016130840000304C
:1000800085000F30FE000030FF009B315823210017
:10009000E901EA01EB01EC01ED01EE01EF017E1057
:1000A00020008E31FC2E35088039BA003A08BF0096
:1000B0003535BA003A08C100B41B41144108031990
:1000C0006E28410A031D6C280030B5000030B400D2
:1000D0000030B3000030B200B41776280030B5000D
:1000E0000030B4000030B3000030B200390880396D
:1000F000BA003A08BF063935BA003A08C000B81B42
:100100004014400803199128400A031D8F2800302D
:10011000B9000030B8000030B7000030B600B817A2
:1001200099280030B9000030B8000030B700003026
:10013000B6004008031D4108031DA7280030B50084
:100140000030B4000030B3000030B20008003208C4
:10015000BA003A08F20038089E310126803173084F
:10016000CB007208CA004A08BA00BB01BC01BD013D
:100170003D08C5003C08C4003B08C3003A08C20063
:100180004B08BA00BB01BC01BD013D08C9003C08D9
:10019000C8003B08C7003A08C6003308BA003A084E
:1001A000F20037089E31012680317308CB007208B7
:1001B000CA004A08BA00BB01BC01BD013A08C20727
:1001C0003B08C33D3C08C43D3D08C53D4B08BA0053
:1001D000BB01BC01BD013A08C6073B08C73D3C084E
:1001E000C83D3D08C93D3408BA003A08F200360857
:1001F0009E31012680317308CB007208CA004A087C
:10020000BA00BB01BC01BD013A08C2073B08C33DAF
:100210003C08C43D3D08C53D4B08BA00BB01BC01CC
:10022000BD013A08C6073B08C73D3C08C83D3D082C
:10023000C93D0830C235C30DC40DC50D890B1A293F
:100240003308BA003A08F20036089E3101268031A0
:100250007308CB007208CA004A08C2074B08C33DA6
:100260000030C43DC53D3208BA003A08F2003708F4
:100270009E31012680317308CB007208CA004A08FB
:10028000C2074B08C33D0030C43DC53D0830C235F0
:10029000C30DC40DC50D890B47293208BA003A08B1
:1002A000F20036089E31012680317308CB007208B7
:1002B000CA004A08C2074B08C33D0030C43DC53DD3
:1002C0003308BA003A08F20038089E31012680311E
:1002D0007308CB007208CA004A08C6074B08C73D1E
:1002E0000030C83DC93D3408BA003A08F20037086A
:1002F0009E31012680317308CB007208CA004A087B
:10030000C6074B08C73D0030C83DC93D3408BA0098
:100310003A08F20038089E31012680317308CB007C
:100320007208CA004A08BA004B08BB00BC01BD01F4
:100330000830BA35BB0DBC0DBD0D890B99293A08A3
:10034000C6073B08C73D3C08C83D3D08C93D4508B8
:10035000BA00BB01BC01BD013A08C6073B08C73D56
:100360003C08C83D3D08C93D0830C235C30DC40D29
:10037000C50D890BB52941084007BA00BB01BB0D6B
:100380003A08823ECA00FF303B3DCB00C81BDD2946
:100390000130C635C70DC80DC90D890BC929C51B4C
:1003A00046140130C235C30DC40DC50D890BD229C9
:1003B000FF30CA07FF30CB3DC629C001C51FF62953
:1003C000FF304205BA00FF304305BB00FF30440553
:1003D000BC007F304505BD003D083C043B043A04A9
:1003E00003194618F429F629C001C00A4008031968
:1003F0001F2A0130C6070030C73D0030C83D00301D
:10040000C93D491C1F2A4608BA004708BB004808D6
:10041000BC004908BD000130BE00BD37BC0CBB0CA0
:10042000BA0CBE0B0D2A3D08C9003C08C8003B08A9
:10043000C7003A08C6000130CA070030CB3D4B0860
:10044000803ABA0080303A02031D282AFF304A025F
:10045000031C342A7F302000C9008030C8000030DF
:10046000C7000030C6005E2A20004B08803ABA0060
:1004700080303A02031D3E2A01304A0203184B2AFB
:1004800000302000C9000030C8000030C700003034
:10049000C600BF015E2A20004A08BA003A08C1001F
:1004A000FF30C605FF30C7057F30C8050030C905DD
:1004B0004118C8174136BA003A08C9003F08BA00C7
:1004C0003A08C9044908B5004808B4004708B30011
:1004D0004608B20008004F088039D4005408DC00F8
:1004E0004F35D4005408DE00CE1B5E145E0803199D
:1004F000872A5E0A031D842A0030CF000030CE0018
:100500000030CD000030CC00CE17CF018F2A003054
:10051000CF000030CE000030CD000030CC005308BA
:100520008039D4005408DD005D085C06031D5C17AB
:100530005335D4005408DD00D21B5D145D08031947
:10054000AF2A5D0A031DAC2A0030D3000030D20070
:100550000030D1000030D000D217D301B72A0030CC
:10056000D3000030D2000030D1000030D0005E084F
:100570005D020318FD2A5C1FC12A8030D400540894
:10058000DC065E08D4005408DF005D08D40054087F
:10059000DE005F08D4005408DD004C08D400540885
:1005A000DF005008D4005408CC005F08D400540881
:1005B000D0004D08D4005408DF005108D40054087E
:1005C000CD005F08D4005408D1004E08D400540870
:1005D000DF005208D4005408CE005F08D40054084D
:1005E000D2004F08D4005408DF005308D400540848
:1005F000CF005F08D4005408D300DF015D08D400A9
:10060000D5015508D7005E085402D600031CD70355
:100610005708803AD80080305802031D112B1A3039
:100620005602031C452B20004F084E044D044C0479
:1006300003191C2B01301D2B0030D4005408DF009F
:100640000030CF000030CE000030CD000030CC00B4
:100650005D08D4005408DE004A2B5F1C352B5F3642
:100660000138D4005408DF00372B0310DF0C4C187E
:10067000DF170130D400CF37CE0CCD0CCC0CD40B0F
:100680003B2B0130D4005408DE0720005D085E02D9
:10069000031C2D2B5C1B7B2B5E08031D582B00308D
:1006A000CF000030CE000030CD000030CC0008007C
:1006B0005008CC075108CD3D5208CE3D5308CF3DE0
:1006C0004F1CF52B5F1C6A2B5F360138D400540891
:1006D000DF006C2B0310DF0C4C18DF170130D40047
:1006E000CF37CE0CCD0CCC0CD40B702B0130D400FA
:1006F0005408DE07F52B4F08803AD4005308803A9F
:100700005402031D8D2B52084E02031D8D2B5108E0
:100710004D02031D8D2B50084C020318C52BFF30D2
:10072000D400FF30D500FF30D600FF30D7004C0892
:100730005002D8004D08513BD9004E08523BDA0018
:100740004F08533BDB005808D4075908D53D5A08D9
:10075000D63D5B08D73D5708CF005608CE00550858
:10076000CD005408CC008030D4005408DC06DF09EA
:10077000DF0A5F08031DCD2B0130CC070030CD3DD3
:100780000030CE3D0030CF3DCD2B5008CC0251087B
:10079000CD3B5208CE3B5308CF3B4F084E044D048F
:1007A0004C04031DF32B5F08031DF32B0030CF0017
:1007B0000030CE000030CD000030CC000800013009
:1007C000CC35CD0DCE0DCF0D890BE02BDF1B4C149E
:1007D0005F1CEC2B0314ED2B0310DF0D5E080319D7
:1007E000F32B0130DE02CE1FDF2BDD01DF1F002CDB
:1007F0005F087F3903194C18FE2B002CDD01DD0A40
:100800005D0803192C2C0130CC070030CD3D0030A1
:10081000CE3D0030CF3D4F1C2C2C4C08D4004D0851
:10082000D5004E08D6004F08D7000130D800D73782
:10083000D60CD50CD40CD80B172C5708CF00560863
:10084000CE005508CD005408CC005E0A03192C2CAC
:100850000130D4005408DE075E0A031D5E08031D44
:100860003C2C0030CF000030CE000030CD000030F6
:10087000CC005E080319DC015E1C402CCE17442C12
:100880007F30D4005408CE055E36D4005408CF0023
:10089000DC1F0800CF170800790880392000A0006D
:1008A0002008A9007935A0002008B000F81B3014FA
:1008B00030080319692C300A031D662C0030F9003A
:1008C0000030F8000030F7000030F600F817F901AA
:1008D000712C0030F9000030F8000030F7000030D3
:1008E000F60075088039A0002008A9067535A0001B
:1008F0002008B100F41B3114310803198D2C310A82
:10090000031D8A2C0030F5000030F4000030F300A5
:100910000030F200F417F501952C0030F50000309E
:10092000F4000030F3000030F20075087404730422
:100930007204031DB42C0030F9000030F8000030C0
:10094000F7000030F6008030F8047F30F904290801
:10095000A0002008F9047908F5007808F400770869
:10096000F3007608F20008003008031DC02C0030A8
:10097000F5000030F4000030F3000030F200080011
:100980003008A000A1012108A30031082002A20024
:10099000031CA30322087F3EAA000030233DAB00C6
:1009A0007908A8007808A7007708A6007608A500AF
:1009B0000030F9000030F8000030F7000030F60099
:1009C0000030AF000030AE000030AD000030AC00B1
:1009D000B1011A3031020318252D31080319072DF2
:1009E0000130A535A60DA70DA80D890BF12C0130FE
:1009F000F635F70DF80DF90D890BF82CAF1B7614B1
:100A00000130AC35AD0DAE0DAF0D890B012D750864
:100A10002802031D152D74082702031D152D7308C8
:100A20002602031D152D72082502031C202D2F17E9
:100A30007208A5027308A63B7408A73B7508A83B7B
:100A40000130A0002008B107E92C2808270426045B
:100A50002504031D2C14F81B422D0130F635F70D2B
:100A6000F80DF90D890B2E2DAF1B76140130AC3526
:100A7000AD0DAE0DAF0D890B372DFF30AA07FF303E
:100A8000AB3D2B2DB101AF1F5B2DFF302C05A0001E
:100A9000FF302D05A100FF302E05A2007F302F056D
:100AA000A300230822042104200403197618592DD9
:100AB0005B2DB101B10A31080319842D0130F6070D
:100AC0000030F73D0030F83D0030F93D791C842DB1
:100AD0007608A0007708A1007808A2007908A30092
:100AE0000130A400A337A20CA10CA00CA40B722D02
:100AF0002308F9002208F8002108F7002008F60072
:100B00000130AA070030AB3D2B08803AA0008030AE
:100B10002002031D8D2DFF302A02031C9C2DFF3067
:100B20002000AA000030AB000030F9000030F800CF
:100B30000030F7000030F60020002B08803AA000BB
:100B400080302002031DA62D01302A020318B42D87
:100B50002000AA01AB010030F9000030F80000309D
:100B6000F7000030F600A90120002A08A0002008A4
:100B7000B000301CBD2DF817C12D7F30A00020081B
:100B8000F8053036A0002008F900A72CBC003C086E
:100B900086008701423FB4003C0886008701433F3E
:100BA000BB0010303B020318DB2D0C30AF002F08C8
:100BB000BA00B701E32D0830AF002F08BA000430A7
:100BC000AF002F08B70021006E03031DF52D200094
:100BD0003B08AF00B0013A0AEF2DAF35B00D890BDD
:100BE000ED2D2F08BD003008092E20006708AF004A
:100BF000B0013008B20034082F02B100031CB20368
:100C00003A0A042EB135B20D890B022E3108BD000F
:100C10003208BE006408A1006308A00021006A0831
:100C20002000A300210069082000A2006208A5009E
:100C30006108A4003A08AF002F08A60089310C21F2
:100C400085312008BD072108BE3D03303B02031C4F
:100C5000542E3C0A860087010103031D3E2E3E08E8
:100C6000F3003D08F2003B08AF00B0012F08F4008C
:100C70003008F5003708B10031084C2E3E08F3006B
:100C80003D08F2003B08FF3EF400FF30031800303F
:100C9000F5003708AF002F08F60095312125853182
:100CA0007308BE007208BD0010303E020130031907
:100CB0003D02031C5F2E0030BD001030BE003C0A18
:100CC000860087010108031DB82E3C08043E8600FB
:100CD000870101080F390319B82EB801B9013C0882
:100CE000043E8600870101080F39AF00B0012F08CC
:100CF000B5003008B600350836040319882E0130D7
:100D0000B5020030B63B2830B8070030B93D7B2E25
:100D100039083E02031D8E2E38083D020318932E1B
:100D2000BD01BE01992E38083D02BD0039083E3B89
:100D3000BE003E08F3003D08F2003908B000380854
:100D4000AF00AF35B00D0030B1001030B2002F0849
:100D50003102F4003008323BF5000C30B3003308A8
:100D6000F6009531212585317308BE007208BD005B
:100D70003E08B0003D08AF006F080C3C890AC22E47
:100D8000B036AF0C890BC02E2F08BD003008BE0056
:100D90000130AF000030B0006F0AD02EAF35B00D7B
:100DA000890BCE2E2F08FF3EB100FF30303DB20040
:100DB0003E083202031DDE2E3D0831020318F02EDC
:100DC0000130AF000030B0006F0AE82EAF35B00D33
:100DD000890BE62E2F08FF3EBD00FF30303DBE00E0
:100DE0003E08AE003D08AD000800D400D101CD01A1
:100DF000CE015408031D0800540EF0395407C03EBC
:100E0000C9004908D500550A860087010230010251
:100E1000031C122F5508043E86008701D0300102C2
:100E2000031808005508043E860087010108C90020
:100E30000430C936890B192F49080F39CA004A08EE
:100E4000EF000130C9000030CA006F0A292FC935F0
:100E5000CA0D890B272F4908E5004A08E600550806
:100E600095317325863155080E3E8600870130087E
:100E7000C03F3108C13F5508063E86008701403F0C
:100E8000C900413FCA0055080E3E86008701403F19
:100E9000CB00413FCC004A084C02031D512F4908AA
:100EA0004B02031C982F5508103E86008701033023
:100EB0000105C90002304906031D612FCE01CE0A8B
:100EC000982F5508023E860087010108C900CA0113
:100ED0004908D2004A08D3005208933114238631BE
:100EE000003A03197D2FCE01CE0A5408C9004908E3
:100EF000F2009A31FD228631982F5208013ED2002D
:100F00000030533DD3005508033E86008701550845
:100F1000023E8400850100080107C900CA01CA0D0C
:100F20004A085302031D962F49085202031C6C2FD6
:100F30004E08031DC22F55080E3E86008701003063
:100F4000C03FC13F5508103E8600870103300105B0
:100F5000C90002304906031DBB2F5508103E86000C
:100F600087018101810A5408C9004908F2009A31B9
:100F7000FD228631EB2F5508103E86008701810146
:100F8000810AEB2F55088831052086314008D000B2
:100F90003F08CF0055080C3E86008701403FC9003E
:100FA000413FCA0050084A06031DD82F4F08490682
:100FB0000319E92F511555080C3E860087014F088B
:100FC000C03F5008C13F5408C9004908F2009A3197
:100FD000FD22D114D1175108C9005508103E8600D2
:100FE00087014908810051088239C9004908CD04A8
:100FF0004D08C9004908E804080092311F22080082
:101000007308E6007208E5000800C800480885314A
:10101000C62588312E08C7002D08C6004808103E96
:101020008600870103300105C10002304106031923
:101030001D284708C500460828284708AB00460871
:10104000AA0048088931732188312B08C5002A0875
:10105000C40048080A3E860087014608C03F47088A
:10106000C13F4508AB004408AA0048088A31CA229B
:101070002B08C3002A08C2004308C0004208BF0072
:10108000080021001C08F9001B08F80020006C185B
:1010900008006A08031D5B289E28210037088A0083
:1010A00036080A0088316C28210035088A00340887
:1010B0000A0088316C286A080139A000A1012108C2
:1010C000003A031964286C282008003A03194D28B7
:1010D000013A031954286C2820006B08A000A101D4
:1010E0002008F2002108F3000930F4000030F50078
:1010F0009D31382588313D30A2002330A30072088D
:10110000220786007308233D870001086A06031939
:101110009A286A1C95280030A0000430A1007808A5
:101120002002F8007908213BF90078082100EB073C
:101130007908EC3D01302000EA020800780821001F
:10114000EB077908EC3D20006C1408000310740DC7
:10115000750D2000A0002008F7007708031DB928AE
:101160000030F5000030F4000030F3000030F200F1
:1011700008007208A0007308A1007408A200750896
:10118000A3001F30A336A20CA10CA00C890BC2280F
:101190002008A4002408F600F417FF30F205FF3001
:1011A000F305FF30F4050030F5059630F702F71F20
:1011B000EC287708803A973E031CB0280130F536BA
:1011C000F40CF30CF20C890BDF280130A00020088E
:1011D000F7070319FD28DE28203077020318B0280E
:1011E00077080319FD280130F235F30DF40DF50DE4
:1011F000890BF4280130F702F0287608031908005B
:10120000F209F309F409F509F20A0319F30A0319BB
:10121000F40A0319F50A080025082102031D122902
:1012200024082002031C48292508A8002408A70038
:10123000A735A80D27082202A9002808233BAA00E9
:1012400020082907AB0021082A3DAC000130A70087
:101250000030A800260A2E29A735A80D890B2C29B5
:1012600024082202F2002508233BF3002C08F50095
:101270002B08F4002608A9002908F600953121253D
:10128000893127087202AB002808733BAC006E2935
:101290002108A8002008A700A735A80D27082202CA
:1012A000A9002808233BAA0024082907AB00250829
:1012B0002A3DAC0020082402F2002108253BF3005F
:1012C0002C08F5002B08F4002608A7002708F600D4
:1012D000953121257308AC007208AB002C08A100E1
:1012E0002B08A0000800AE002E080A3E86008701E9
:1012F000403FAF00413FB0003008F3002F08F2003C
:101300002B08F5002A08F4002E0894313324893183
:101310007308B4007208B300330334040319962928
:10132000330A031D9B29340A031D9B293008AD0095
:101330002F08AC00DE29B41FBC29F601F7013308E1
:101340007602B3003408773BB4003408B2003308A7
:10135000B1003208F7003108F600F736F60C7608CF
:10136000B1007708B200F601F70131087602B30048
:101370003208773BB400CE293408B2003308B100FC
:101380003208F7003108F600F736F60C7608B1009F
:101390007708B2003208B4003108B3002F083307D1
:1013A000AC003008343DAD006508FF3EF600FF306C
:1013B000663DF7007608AC057708AD052D08AB0053
:1013C0002C08AA0008002F088600300887004B313F
:1013D000403FB100413FB2000030320209300319F2
:1013E00031020318FB293008A6002F08A50092310E
:1013F00048228931022A3008F3002F08F2008B318D
:10140000CF2389312F088600300887004B31013007
:10141000810741310318810A2F08860030088700B0
:101420004B31403FB100413FB2000030320210303A
:1014300003193102031C4D2A2F088600300887004B
:101440004631403FB100413FB200423FB300433F0D
:10145000B4000430B436B30CB20CB10C890B2A2A98
:101460002F0886003008870044313108C03F320819
:10147000C13F2F08023EB1000030303DB2003108BC
:10148000860032088700013081002F08860030086E
:1014900087004B310030C03FC13F3008F9002F08B2
:1014A000F8009B31022308002F08860030088700CF
:1014B0004A310108803AB1002F08860030088700C1
:1014C0004F312F088400300885000F3100360102AB
:1014D000803AB1020318B52A2F0886003008870029
:1014E0004B310130810741310318810A2F088600F2
:1014F000300887004B31403FB100413FB20000301F
:101500003202043003193102031CAE2A2F08023EB6
:10151000B1000030303DB20031088600320887004B
:10152000013081002F088600300887004B310030E1
:10153000C03FC13F2F088600300887004D31FF3083
:10154000C03FFB30C13F2F088600300887000108EC
:10155000B1003108F2009A31FA228A313008F900DC
:101560002F08F8009B31022308002F08023EB1002B
:101570000030303DB2003108860032088700033069
:1015800081002F088600300887004B310030C03FB3
:10159000C13F0800B400B101340886008701453F0F
:1015A000B00034080C3E86008701403FAC00413F4C
:1015B000AD002D08F3002C08F2002B08F5002A08D6
:1015C000F4003408943133248A317308B30072086C
:1015D000B200B31FF52AF601F70132087602B20015
:1015E0003308773BB300B101B10A3103031D182B57
:1015F0003408093E860087013308803A803C031D89
:10160000032B320801020318182B20003008F600C3
:101610003408083E86008701760881003408093EB8
:101620008600870181012B08AF002A08AE00412BFC
:1016300020003108031D382B3408083E860087013E
:101640003308803A803C031D272B3208010203181F
:10165000382B20003408083E8600870181013008BD
:10166000F6003408093E8600870176088100132BB6
:10167000200034080C3E86008701403FAE00413F09
:10168000AF002F08AB002E08AA00080072088600E1
:10169000730887004631403FA000413FA100423F10
:1016A000A200433FA3000430A336A20CA10CA00C5F
:1016B000890B542B72088600730887004431403F21
:1016C000A400413FA5002408A6002508A700A80102
:1016D000A9012008A6022108A73B2208A83B23084D
:1016E000A93B2908F7002808F6002708F500260876
:1016F000F4007408A0007508A1007608A20077081D
:10170000A30072088600730887005031010A8C2BF1
:10171000A337A20CA10CA00C890B882B2308F7007F
:101720002208F6002108F5002008F400F71BAD2B75
:101730007708031DA52B7608031DA52B7508031D2F
:10174000A52B80307402031CAD2B0030F700003055
:10175000F6000030F5007F30F400F71FC12B803019
:101760007402FF30753BFF30763BFF30773B031848
:10177000C12BFF30F700FF30F600FF30F50080305E
:10178000F40072080A3E2000A0000030733DA10062
:1017900020088600210887007408810008008B1F3C
:1017A000182C8B1372088600730887004631403F5F
:1017B000F400413FF500423FF600433FF70004309C
:1017C000F736F60CF50CF40C890BE02B720886004A
:1017D0007308870046317408810241317508813BE6
:1017E00041317608813B41317708813B7D31720878
:1017F0008600730887004431403FF400413FF50004
:101800007408F6007508F700F801F90172088600FF
:101810007308870046317608810741317708813D9A
:1018200041317808813D41317908813D8B170800AD
:1018300072088600730887004631403FF400413F3C
:10184000F500423FF600433FF7000430F736F60C50
:10185000F50CF40C890B262C72088600730887009F
:1018600046317408810241317508813B4131760867
:10187000813B41317708813B7D31720886007308D6
:1018800087004431403FF400413FF5007408F60002
:101890007508F700F801F9017208860073088700DF
:1018A00046317608810741317708813D413178081A
:1018B000813D41317908813D08002000A0002008C9
:1018C000031DF51F732C7209A2007309A30074098C
:1018D000A4007509A500A20A0319A30A0319A40A02
:1018E0000319A50A7B2C7508A5007408A4007308C9
:1018F000A3007208A2007508740473047204031D27
:101900008A2C0030F5000030F4000030F300003085
:10191000F20008009630F6007608A100FE3025059A
:101920000319B12C0130F6007608A1070130A53665
:10193000A40CA30CA20C890B972C8E2C0130F60062
:101940007608A1070130A2070030A33D0030A43D76
:101950000030A53D0130A536A40CA30CA20C890BC8
:10196000AB2CFF3025050319C32C9E2C023021021D
:10197000031CC52C0130A1020130A235A30DA40D1A
:10198000A50D890BBD2CA41FB62C2118CF2CFF3020
:10199000A205FF30A3057F30A405FF30A505031085
:1019A000A10C2108F600F701F801F9011830F6350D
:1019B000F70DF80DF90D890BD72C7608A2047708DE
:1019C000A3047808A4047908A5042008031DF51FC2
:1019D000EA2CA5172508F5002408F4002308F300D5
:1019E0002208F20008002F088600300887004331E3
:1019F000010803191B2D3008A5002F08A4008D3104
:101A00008B258C31003A03191B2D20002F08023E34
:101A1000B1000030303DB200310886003208870046
:101A2000013081002F088600300887004B310030DC
:101A3000C03FC13F080020002F0886003008870003
:101A40004A310108B100B201B11BB2032F08860070
:101A5000300887004F313208803A803C031D322D18
:101A6000310801020318752D20002F088600300868
:101A700087004B310130810741310318810A2F085B
:101A80008600300887004B31403FB100413FB20033
:101A900000303202043003193102031C6E2D2F086E
:101AA000023EB1000030303DB200310886003208FD
:101AB0008700033081002F088600300887004B31F3
:101AC0000030C03FC13F2F08860030088700010862
:101AD000B1003108F2009A31FA228C313008F90055
:101AE0002F08F8009B310223080020002F08023E37
:101AF000B1000030303DB200310886003208870066
:101B0000013081002F088600300887004B310030FB
:101B1000C03FC13F080024088600250887004331E4
:101B20000108A6002608AA002408860025088700C8
:101B30004F310108A600A7012508F3002408F20090
:101B40009131AC218D3126087202A8002708733B21
:101B5000A9009B30AD002330AE00DF30A60023305B
:101B6000A7002E082702031DB72D2D082602031CEF
:101B7000282E24088600250887002D0884002E08BA
:101B80008500000801060319172E2D0886002E086F
:101B90008700433101082A06031D172E2D089131B5
:101BA00025218D31003A0319172E2D0886002E08A5
:101BB00087004231033001060319F52D2D088600F8
:101BC0002E0887004231023001060319F52DF72D4A
:101BD00020002908803AA6002C08803A2602031D1E
:101BE000F32D2B0828020318172E013008002D08AA
:101BF00086002E0887004F310108A600A7012E0895
:101C0000F3002D08F2009131AC218D3126087202CB
:101C1000AB002708733BAC002C08803AA60080304C
:101C20002602031D152E01302B020318E82D11305A
:101C30002000AD070030AE3DDF30A6002330A70006
:101C40002E082702031D262E2D0826020318B92D63
:101C5000003008002F088600300887004A3101084C
:101C6000803AB1002F088600300887004F31010309
:101C7000FF3A803AB10203186F2E2F088600300811
:101C800087004B310130810741310318810A2F0849
:101C90008600300887004B31403FB100413FB20021
:101CA00000303202093003193102031CB92E2F080B
:101CB0008600300887004B310030C03FC13F2F08FD
:101CC0008600300887000108933156238E31300892
:101CD000F9002F08F8009B3102238E31B92E2F080E
:101CE0008600300887004A310108B100B201B11BFB
:101CF000B2032F088600300887004F313208803A3F
:101D0000803C031D852E310801020318B02E2000EF
:101D10002F088600300887004331010803199A2EE6
:101D20003008A5002F08A4008D318B258E31003A94
:101D3000031D080020002F08023EB1000030303D96
:101D4000B2003108860032088700023081002F0877
:101D50008600300887004B310030C03FC13F672EFE
:101D600020002F088600300887004B310030C03F2C
:101D7000C13F2F088600300887004331010803194E
:101D8000D62E3008A5002F08A4008D318B258E316A
:101D9000003A0319D62E20002F088600300887004D
:101DA0004D31FF30C03FFB30C13F080020002F08FD
:101DB0008600300887004D3101308107413103181A
:101DC000810A2F088600300887004D311600403AFE
:101DD000B1001600B104031D08002F08860030086A
:101DE00087004D310030C03FC13F3008F3002F085D
:101DF000F2008B31CF2308009C3141248E318B17A8
:101E00000B17DF01E00122000E143230F200003027
:101E1000F3009B31D5238E3122000E103230F200B8
:101E20000030F3009B31D5238E3101302100DF07D4
:101E30000030E03D6008803A2000E0008030600221
:101E4000031D252F0A3021005F02031C032F91314F
:101E5000D0218E31003A0319272F00309C312F24D6
:101E60008E31003A0319502F00309C311D248E31E1
:101E700073082100D6007208D5005508F2005608F4
:101E8000F300F401F50100308C315D248E317508CA
:101E90002100DA007408D9007308D8007208D7004E
:101EA00000309C31BC248E31003A031D602F00307D
:101EB0002100DA000030D9000030D8000030D7000F
:101EC0003E302000B5004C30B400CC30B300CD30F3
:101ED000B20021005A082000B90021005908200052
:101EE000B800210058082000B70021005708200042
:101EF000B600803153208E313508CF003408CE0033
:101F00003308CD003208CC003F30B5004C30B4006F
:101F1000CC30B300CD30B20021005E082000B90003
:101F200021005D082000B80021005C082000B700F7
:101F300021005B082000B600803153208E31350827
:101F4000D3003408D2003308D1003208D0008231E7
:101F50006B228E314F082100DE0020004E08210048
:101F6000DD0020004D082100DC0020004C0821008D
:101F7000DB0042302000B500C830B4000030B300B0
:101F80000030B2004530F5008030F4000030F3003E
:101F90000030F20021005E08F9005D08F8005C08DE
:101FA000F7005B08F60084314C248E317508B900C7
:101FB0007408B8007308B7007208B6008031532067
:101FC0008E3135082100D400200034082100D300D0
:101FD000200033082100D200200032082100D10067
:101FE0005408F5005308F4005208F3005108F200B9
:101FF0008831A6208E3172089B313D238E31272FE8
:102000007308E2007208E100080022008D10210030
:1020100029309D000A30890B0B2800328D30840056
:10202000003085000D30860001308700213000151A
:102030009D000530890B1A28000021009D140032F4
:10204000000022000D110011080022000D112100D6
:1020500021309D000A30890B2B2800328D308400FE
:10206000003085000D308600013087002530801556
:102070009D000530890B3A28000021009D14003294
:10208000000022008D118011080022008D11210016
:1020900025309D000A30890B4B2800328D3084009A
:1020A000003085000D308600013087002D3000168D
:1020B0009D000530890B5A28000021009D14003234
:1020C000000022000D120012080022000D12210053
:1020D0002D309D000A30890B6B2800328D30840032
:1020E000003085000D3086000130870035308016C5
:1020F0009D000530890B7A28000021009D140032D4
:10210000000022008D128012080022008D12210092
:1021100035309D000A30890B8B2800328C308400CA
:10212000003085000C3086000130870011308016A9
:102130009D000530890B9A28000021009D14003273
:10214000000022008C128012080022008C12210054
:1021500011309D000A30890BAB2800328C3084008E
:10216000003085000C308600013087000D3080156E
:102170009D000530890BBA28000021009D14003213
:10218000000022008C118011080022008C11210017
:102190000D309D000A30890BCB2800328C30840032
:1021A000003085000C3086000130870009300015B2
:1021B0009D000530890BDA28000021009D140032B3
:1021C000000022000C110011080022008C102100D8
:1021D00005309D000A30890BEB2800328C308400DA
:1021E000003085000C30860001308700013000147B
:1021F0009D000530890BFA28000021009D14003253
:10220000000022000C1000100800F80005307802D1
:10221000031823297808A000A1012008F200210852
:10222000F3001130F4000030F5009D313825A53061
:10223000A2002330A3007208220786007308233D02
:1022400087000108080000300800F8000B30780211
:10225000031844297808A000A1012008F2002108F1
:10226000F3000930F4000030F5009D31382540308E
:10227000A2002330A3007208220786007308233DC2
:10228000870001080139080000300800F8000B3011
:102290007802031865297808A000A1012008F2003F
:1022A0002108F3000930F4000030F5009D31382595
:1022B0004030A2002330A300720822078600730872
:1022C000233D8700010C0139080000300800083068
:1022D00023009F0090309D0024309E008A309B0098
:1022E0009C010030F2000030F3009B311423913147
:1022F0000030F2000030F3008831002091310030CE
:10230000F2000030F3009B310E232100ED010800A4
:10231000A4000B3024020318A9292408A000A1015D
:102320002008F2002108F3000930F4000030F50025
:102330009D3138253E30A2002330A30072082207C9
:1023400086007308233D8700403FF800413FF900B5
:102350000800F801F9010800720886007308870078
:102360004631403FF400413FF500423FF600433F15
:10237000F7000430F736F60CF50CF40C890BBA298B
:1023800072088600730887004431403FF800413FDF
:10239000F90074087802F2007508793BF300080030
:1023A00020006D080319D9299C318F249131200018
:1023B000ED016E080319E2299C317B249131003A2A
:1023C000031DE429003008009B31F92391319B3132
:1023D0008B2391319B3199239131D8005808EE001D
:1023E0009D31A82591318731FD27013008007508FE
:1023F000A3007408A2007308A1007208A0000130B5
:10240000F6020030F73B760A0319770A0319080031
:1024100022088400230885000008F8007808A4003A
:102420000130A2070030A33D200886002108870064
:10243000240881000130A0070030A13DFF29AE0132
:102440002E08A800A9012808F2002908F30011307D
:10245000F4000030F5009D31382592319B30AA0000
:102460002330AB0072082A07AC0073082B3DAD0087
:102470002D08A5002C08A40096311C2692310130AD
:10248000A8002808AE0705302E0203180800202AED
:1024900025088600260887004131010891318821EE
:1024A00092317808A7007908A800A901AA01250897
:1024B00086002608870046312708C03F2808C13F0C
:1024C0002908C23F2A08C33F25088600260887003E
:1024D0004631043081354131810D4131810D413129
:1024E000810D7D31890B6A2A0800E33409342A34CE
:1024F0000E34F3340C34C634153454340A34D33423
:102500001C34FB341A34FD341A34FD341A34FD34CF
:102510001A34C0341F3460341E34FC341A34FA3494
:102520001A34FA341A346334FF340034003400347B
:102530000534C0340F3464340034003400340034C3
:10254000003400340034003400340034F3007308E5
:10255000031D0800730EF0397307C03EF2007208C5
:10256000F4007408103E8600870181017408083E5B
:102570008600870181017408053E860087010108F5
:10258000F2007408093E8600870172088100740811
:102590000A3E860087010030C03FC13F74080C3EF0
:1025A000860087010030C03FC13F74080E3E8600A0
:1025B00087010030C03FC13F0800AB002B088600F8
:1025C0008701423FAA002B08033E860087012A08A4
:1025D0000107A600A701A70D2608FF3EA800FF30AF
:1025E000273DA900670828062904031D022B2B0A92
:1025F000860087010103031DFF2A2A08042BE1013D
:10260000E2010B2B6708013E913105219231E10077
:10261000E201E11BE203E21F0F2BE101E20162088C
:10262000A5006108A4000800F9000530790203182C
:10263000542BF801F80A7908A000A1012008F20043
:102640002108F3001130F4000030F5009D313825E9
:1026500093319D30A2002330A30072082207860028
:102660007308233D8700033001060319522B7908B4
:10267000A000A1012008F2002108F3001130F400AD
:102680000030F5009D3138259D30A2002330A30095
:102690007208220786007308233D87000430010674
:1026A000031DF8017808080000300800A400240881
:1026B000A000A1012008F2002108F3001130F4006D
:1026C0000030F5009D31382593319B30A200233036
:1026D000A30072082207A5007308233DA600250861
:1026E000860026088700423181012508063EA000A9
:1026F0000030263DA1002008860021088700003018
:10270000C03FC13FC23FC33F25088600260887005F
:102710004B310030C03FC13F2508860026088700A6
:102720004D310030C03FC13F250886002608870094
:10273000413101089A31F92208000530AD002D0819
:10274000AE002C08F3002B08F2009B317D2393315F
:10275000003A031DB42B003008000130AE022E08F1
:10276000031DB42BFC3008002C08A5002B08A40086
:10277000963176269331003A031DAD2B2B08860047
:102780002C0887004631403F21006B02F200413F98
:102790006C3BF3009C31A52493310030730265300B
:1027A00003197202031CDD2B20002C08F3002B08F8
:1027B000F2009B3121239331AB2B20002C08F30036
:1027C0002B08F2009B3128239331AB2BAF00AC01D7
:1027D000AD012F0886008701423FE7002F088600E1
:1027E0008701423FAE002F08033E860087012F0875
:1027F000023E8400850100080107A600A701A70D7D
:102800002E08A800A90127082902031D092C260863
:10281000280203182E2C2E08913105219331AA008D
:10282000AB01AA1BAB032D08803AA6002B08803A07
:102830002602031D1D2C2A082C020318282C200018
:102840002E08A6002608E7002B08AD002A08AC00D9
:1028500001302000A6002608AE07F32B2D08A500A6
:102860002C08A4000800A5006608A1006508A000C7
:10287000A136A00C2008A6002108A7007208740247
:10288000A8007308753BA900250A8600870101038B
:10289000031D7A2CA91F672CA001A1012608200284
:1028A000A2002708213BA3002908803AA40023089E
:1028B000803A2402031D5E2C2208280203187A2C79
:1028C000200028086507A8002908663D792C2708FC
:1028D000803AA0002908803A2002031D712C2808A4
:1028E000260203187A2C200065082802A800660832
:1028F000293BA90020002908F3002808F20008005D
:10290000A600260886008701423FA7002100EE01AD
:10291000200067082706031DBD2C260A86008701B4
:102920000103031DBA2C2608033E86008701010817
:102930002707FF3E913105219431E300E401E31BB9
:10294000E4032708013E913105219431E100E201C1
:10295000E11BE2036208803AF9006408803A7902D8
:10296000031DB42C630861020318C62C2100EE017C
:10297000EE0AC62CE301E401C62C6708FF3E913144
:1029800005219431E300E401E31BE4032000E41F8C
:10299000CB2CE301E4016408A5006308A40008004F
:1029A00025088600260887004231010803190F2DEB
:1029B00025088600260887004431403FA700413F94
:1029C000A8000430A836A70C890BE22C2508860045
:1029D0002608870044312708810241312808813BBD
:1029E0007F31250886002608870041310108913192
:1029F000882194317808A7007908A8000430A83607
:102A0000A70C890BFF2C2508860026088700443177
:102A10002708810741312808813D7F3108002508BA
:102A20008600260887004131010891318821250858
:102A300086002608870044317808C03F7908C13FE6
:102A40000800F801F9010130F7007708F60774086B
:102A50007504031D322D632D0130F6027235F2002C
:102A6000730DF300F31B402D76080319402D2C2D18
:102A70000130F7007708F6077435F400750DF5009E
:102A8000F51B5E2D382D7835F800790DF9000130F1
:102A9000F60275087302031D4F2D74087202031CA1
:102AA000592D7408F2027508F33B0130F807003025
:102AB000F93D0130F536F40C890B5A2D7608031DCB
:102AC000F91B672D432DFF30F800FF30F900760821
:102AD00003196E2DFF30F800FF30F9007908F3007C
:102AE0007808F2000800B60036089331E6239531E5
:102AF00025082100EA00200024082100E900200028
:102B000036089231DD2295312508E2002408E100E3
:102B100036089431802495312508E4002408E30028
:102B20006408803AB2006208803A3202031D9A2D8E
:102B3000610863020318A42D2000610821006907C1
:102B40002000B4006208AB2D200063082100690753
:102B50002000B400640821006A3D2000B50036085A
:102B6000063E86008701403FB200413FB300330874
:102B70003502031DBD2D320834020318C12DB401E6
:102B8000B5013508B1003408B00008002F088600F0
:102B9000300887004B31403FB100413FB200013067
:102BA0003202F43003193102031CE92D2F0886008C
:102BB0003008870001089331562395312F0886008D
:102BC000300887000108B1003108F2009A31FA227A
:102BD00008002F088600300887004A310108803A33
:102BE000B1002F088600300887004F312F0884007D
:102BF000300885000F3100360102803AB102031817
:102C000008002F08023EB1000030303DB20031080C
:102C1000860032088700043081002F0886003008C3
:102C200087004B310030C03FC13F3008F9002F080A
:102C3000F8009B310223080024088600250887003D
:102C4000423103300106031D422E24088600250868
:102C500087004B310130810741310318810A240874
:102C60008600250887004B3116000104031D08006B
:102C700024088600250887004B31FF30C03FFF3015
:102C8000C13F08002408860025088700423105302E
:102C90000106031D080024088600250887004B3123
:102CA0000130810741310318810A24088600250874
:102CB00087004B31403FA600413FA700003027026C
:102CC000403003192602031C08002408860025084A
:102CD00087004B310030C03FC13F240886002508E3
:102CE0008700413101089D31E3250800AA01210038
:102CF0001D082000A6002608A70021001E082000AD
:102D0000A6002608A8009B310923963100308B1BB2
:102D100001302000A9002508F3002408F2009C31AE
:102D200067249631200024088600250887000108C2
:102D3000A6002608EB0024088600250887004531F8
:102D40000108A6002608EA002100EB01EC012000A2
:102D50006C109B31C5239631A6002608E90021009E
:102D6000EB01EC012000EC108B13883141209631EF
:102D7000290C031C8B1303188B179B314E239631A0
:102D800021009D18C02E20006C1CB42E27082100A5
:102D90009D002000280821009E002000EC1CD42E5D
:102DA000FA30A6002608AA002A080800B900390847
:102DB000B500B6013508F2003608F3001130F40012
:102DC0000030F5009D31382596319B30B700233017
:102DD000B80072083707BA007308383DBB003A08DC
:102DE00086003B0887004131010891314621963128
:102DF000003A031908003A0886003B088700413171
:102E000001089B3100239631003A031908003B0862
:102E1000AA003A08A9009B31E72396313B08F3004A
:102E20003A08F2008B31462396313A0886003B0877
:102E30008700423107300102031C262F3A08860022
:102E40003B08870001089331562396313B08B000B8
:102E50003A08AF003A0886003B0887004231013546
:102E6000A03E86008701413F8A00403F0A0097311B
:102E70000800003460341E34C0341F342034003461
:102E800000340034013480341E34E0341F342034E4
:102E90000034003400340234A0341E3405341034BD
:102EA00020340034003400340334C0341E3425345C
:102EB000103420340034003400340434E0341E3440
:102EC00045341034203400340034003405340034E8
:102ED0001F34653410342034003400340034063498
:102EE00020341F348534103420340034003400344E
:102EF000073440341F34A5341034203400340034F7
:102F00000034083460341F34C534103420340034A5
:102F100000340034093440341E34A0341F342034CB
:102F20000034003400340A3480341F34E534103463
:102F30002034003400340034B3003308AF00B00153
:102F40002F08F2003008F3000930F4000030F500DB
:102F50009D31382597313830B1002330B2007208E6
:102F60003107B5007308323DB6003608AC003508AD
:102F7000AB0093319D239731AF002F08B400E12FB0
:102F80003608F3003508F2009B317D239731003A73
:102F90000319FE2F3608F3003508F2009D31042591
:102FA000973120003608F3003508F2009B312F23BB
:102FB00097313308AF002F08F2009A31FC22973185
:102FC000FE2F3408AF00B001AF1BB0033008003A49
:102FD0000319EE2FFF3A0319F32FFE2F2F08003AA3
:102FE0000319C02FFE2F2F08FD3A0319FE2F033AB5
:102FF0000319FE2F013A0319FE2FFE2F3408080093
:10300000003405340034013400340034003400341A
:1030100000340034003400340034003400346434AC
:10302000013401340A3400340134003400340034F3
:1030300000340034003400340034003400340034F0
:10304000643401340234093400340134003400346F
:1030500000340034003400340034003400340034D0
:10306000003464340134033408340034013400344F
:1030700000340034003400340034003400340034B0
:10308000003400346434013404340734003401342F
:103090000034003400340034003400340034003490
:0A30A00000340034003464340134BD
:1035F000080008000800080008000800FB01080097
:1036000001300800FB01FB0A08001630210097007A
:10361000080021009D01A0309E00080073082200D0
:10362000A1007208A000080073082100E8007208D9
:10363000E700080078088600790887004831811083
:1036400008007208860073088700483101150800D9
:10365000720886007308870048310111080072085B
:1036600086007308870048318114080070302100FB
:1036700099009801220096010800F2002000111E16
:103680003E2B720823009A0008003F08F1003E0814
:10369000F0009B31A723EE01EE0A08006908F20052
:1036A0007208F3007308031908000130F302522B6B
:1036B0006400800101310130FE020030FF3B7F08D1
:1036C0007E0403190034592BFE0012001E00013045
:1036D000FE020030FF3B7F087E0403190034652B97
:1036E000F60176089231A6229B310130F50075086B
:1036F000F6077608031D0800712B7208730403197E
:10370000892B720886007308870048310108013947
:10371000080000300800E801D70157088631F52677
:103720009B310130D6005608D7075708031D080003
:103730008D2BA8019D316F259B31A7002708A80478
:1037400080310220A7002708A804280808002000CC
:10375000181DB12B181071089700700896001814E6
:103760000800710897007008960008002000AA0160
:103770002A089E3120269B310130A9002908AA077A
:103780000B302A0203180800B82B7A1CC92B7A3692
:10379000CF2B7A36F2007208FA007A08B43AF200B7
:1037A0007208FA007A080F3908000130F20200307E
:1037B000F33B720A0319730A031908000B30F40073
:1037C0006230890BE12BF40BE12B0032D52B8B1FE0
:1037D000F22B8B132A08A6002908A5009431D024C7
:1037E0008B1708002A08A6002908A5009431D024C8
:1037F00008009A31FE229B31BD013D089631D62644
:103800009B3101302000BC003C08BD0705303D0263
:1038100003180800FD2BF2007208031D1B2C720E0A
:10382000F0397207D03E86008701811F192C0130C4
:1038300008000030080000300800F4007408031D80
:103840002C2C740EF0397407CC3E86008701403F63
:10385000F200413FF3000800F201F3010800F2001A
:103860007208031D3F2C720EF0397207D03E86009D
:103870008701011D3D2C0130080000300800003098
:1038800008009D311E259C319B3136239C319B3194
:1038900005239C319C31EB249C31913167219C3173
:1038A0009C318F240800111021006408F100630886
:1038B000F0009B31A7239C312100610862040319A9
:1038C000080062088A0061080A009C31080072083A
:1038D0008600730887004131403F2100B600413F18
:1038E000B70072088600730887004331403FB40078
:1038F000413FB5000800B801380897319C279C313A
:10390000003A0319852C003008000130B700370851
:10391000B8070B303802031C7C2C013008009B31A7
:10392000B6239C319D318B259C319B3170239C317A
:103930009D31A8259C319B3109239C314530F200F3
:103940001B30F3009031002008007308803AF40027
:1039500080307402031DAE2C01307202031808007F
:103960007209F4007309F500F40A0319F50A7408E2
:10397000F2007508F3000800F3007308031DD12C52
:10398000730EF0397307D03E8600870103300105BE
:10399000F20002307206031DCF2C01300800003007
:1039A0000800003008003008F3002F08F2008B31C7
:1039B000CF239C312F088600300887004B31003020
:1039C000C03FC13F2F088600300887004131010801
:1039D0009D31C525080020009901FF309700653012
:1039E0009600111017082100E4002000160821009D
:1039F000E3001114F830F2001A30F3009031002087
:103A000005302000980008008B1F132D8B137208BF
:103A1000860073088700463121006B08C03F6C08A0
:103A2000C13F8B1708007208860073088700463173
:103A300021006B08C03F6C08C13F080022009001C4
:103A40008C018D018E01083021009000D0308C0057
:103A5000C0308D00BE308E0023008D0110308C00F0
:103A6000240090018D012100951722009D0108007E
:103A7000F601F701721C402D7408F6077508F73D32
:103A80000130F435F50D890B412D0130F336F20C80
:103A9000890B462D72087304031D3A2D7708F30035
:103AA0007608F2000800A4002408A000A101200864
:103AB000F2002108F3001130F4000030F5009D31D0
:103AC00038259D319B30A2002330A30072082207C5
:103AD000F8007308233DF9009B3102230800A6017A
:103AE00026089C310B249D31003A0319812D260EA6
:103AF000F0392607C23E8600870101089D31532513
:103B00009D310130A5002508A60726080319702D50
:103B10006808803908009B30F2002330F300003041
:103B2000F4009830F5005530F6000030F700913180
:103B3000F7219D31A7012708933156239D3101308C
:103B4000F9007908A70705302702031808009B2D04
:103B500038302000A2002330A3009230A000233090
:103B6000A10023082102031DB72D22082002031CF7
:103B700008002308F9002208F8009B311A239D3120
:103B80000930A2070030A33DAD2DF8000B307802BC
:103B9000031808007808A000A1012008F2002108FD
:103BA000F3000930F4000030F5009D313825403035
:103BB000A2002330A3007208220786007308233D69
:103BC000870001100800F8000B3078020318080085
:103BD0007808A000A1012008F2002108F3000930B4
:103BE000F4000030F5009D3138254030A20023302C
:103BF000A3007208220786007308233D8700011482
:103C00000800A400A001A1017208F400F5017408E5
:103C1000A2007508A300241C112E2208A007230867
:103C2000A13D0130A235A30D890B122E0310A40C67
:103C30002408031D0B2E2108F3002008F2000800C1
:103C4000A80028089D31E3259E312808A400A5017D
:103C50002408F2002508F3000930F4000030F500D4
:103C60009D3138259E313830A6002330A7007208D8
:103C70002607F8007308273DF9009B311A23080036
:103C800022000C15210009309D000A30890B462EB8
:103C900000328C308400003085000C30860001300A
:103CA0008700053080149D000530890B552E0000DB
:103CB00021009D140032000022008C1480100800A6
:103CC00022000C14210001309D000A30890B662E61
:103CD00000328D308400003085000D3086000130C8
:103CE0008700313000149D000530890B752E0000CF
:103CF00021009D140032000022000D140010080065
:103D000022000D14210031309D000A30890B862ECF
:103D100000328D308400003085000D308600013087
:103D20008700293080149D000530890B952E0000F6
:103D300021009D140032000022008D148010080024
:103D400022008D14210029309D000A30890BA62EF7
:103D500000328D308400003085000D308600013047
:103D60008700213000159D000530890BB52E00001D
:103D700021009D140032000022000D1500110800E2
:103D800022000D15210021309D000A30890BC62E1E
:103D900000328D308400003085000D308600013007
:103DA0008700253080159D000530890BD52E000039
:103DB00021009D140032000022008D1580110800A2
:103DC00022008D15210025309D000A30890BE62E3A
:103DD00000328D308400003085000D3086000130C7
:103DE00087002D3000169D000530890BF52E000050
:103DF00021009D140032000022000D160012080060
:103E000022000D1621002D309D000A30890B062F4F
:103E100000328D308400003085000D308600013086
:103E20008700353080169D000530890B152F000066
:103E300021009D140032000022008D16801208001F
:103E400022008D16210035309D000A30890B262F67
:103E500000328C308400003085000C308600013048
:103E60008700113080169D000530890B352F00002A
:103E700021009D140032000022008C1680120800E0
:103E800022008C16210011309D000A30890B462F2C
:103E900000328C308400003085000C308600013008
:103EA00087000D3080159D000530890B552F0000CF
:103EB00021009D140032000022008C1580110800A2
:103EC00022008C1521000D309D000A30890B662FD1
:103ED00000328C308400003085000C3086000130C8
:103EE0008700093000159D000530890B752F0000F3
:103EF00021009D140032000022000C150011080062
:103F000022008C14210005309D000A30890B862F79
:103F100000328C308400003085000C308600013087
:103F20008700013000149D000530890B952F00009B
:103F300021009D140032000022000C140010080023
:103F400022000C11210009309D000A30890BA62F98
:103F500000328C308400003085000C308600013047
:103F60008700053080149D000530890BB52F0000B7
:103F700021009D140032000022008C1080100800E7
:103F800022000C10210001309D000A30890BC62F41
:103F900000328D308400003085000D308600013005
:103FA0008700313000149D000530890BD52F0000AB
:103FB00021009D140032000022000D1000100800A6
:103FC00022000D10210031309D000A30890BE62FB0
:103FD00000328D308400003085000D3086000130C5
:103FE0008700293080149D000530890BF52F0000D3
:103FF00021009D140032000022008D108010080066
:020000040001F9
:08000000FF3FFF3FFF3FFF3F00
:04000E00E43DFF3F8F
:00000001FF
