:1000000080311228670808007E1480310B1F1028E9
:100010002100111C10282000111C10288E31B02640
:100020007E10090080311428E63084008F3085006E
:1000300041308600003087001A308D31C92580316B
:10004000D030840087308500D330860000308700B0
:100050001B308D31C9258031FA01FB0165308400E8
:10006000003085000A308D31C3258031A0308400F6
:100070000030850033308D31C3257E102000803163
:1000800041288E31F82680318B170B17BF01C00134
:1000900022000E143230F2000030F3008E31C226FE
:1000A000803122000E103230F2000030F3008E3129
:1000B000C226803101302000BF070030C03D40081B
:1000C000803AB10080303102031D68280A303F02B7
:1000D000031C48288631A8268031003A03196A2873
:1000E000BF01C00120003F088F316D278031200003
:1000F0003F35393E860087017608C03F7708C13F0B
:100100003F088731B1278031B100B2013F35333E1E
:10011000860087013108C03F3208C13F0130BF0768
:100120000030C03D4008803AB10080303102031DEC
:100130009B2803303F02031C722820003A088D31AF
:10014000CF258031200039088D31CF258031200026
:100150003C088D31CF25803120003B088D31CF25E3
:10016000803120003E088D31CF25803120003D08B0
:100170008D31CF258031200033088D31CF2580315E
:10018000200035088D31CF258031200037088D3192
:10019000CF2580310530F2000030F3008E31C226C9
:1001A00080316A282508093E860087010108803AC7
:1001B000A60025080E3E860087010103FF3A803A1B
:1001C000A60203180F2925080A3E86008701013080
:1001D000810741310318810A25080A3E86008701FC
:1001E000403FA600413FA700003027020930031915
:1001F0002602031C422925080A3E8600870100309A
:10020000C03FC13F250886008701010886312726A7
:100210008031200025088D319E2580314229250816
:10022000093E860087010108A600A701A61BA703B7
:1002300025080E3E860087012708803A803C031D72
:1002400023292608010203183A2902302000A600BB
:100250002508023E860087012608810025080A3EFF
:10026000860087010030C03FC13F25088D319E25A3
:1002700080314229200025080A3E8600870100308F
:10028000C03FC13F25080C3E860087010130810731
:1002900041310318810A25080C3E860087011600AB
:1002A000403AA6001600A604031D080025080C3ECF
:1002B000860087010030C03FC13F250881316121A0
:1002C0000800F8008B1FA7298B137808053E8600CD
:1002D0008701403FF200413FF300423FF400433FBB
:1002E000F5000430F536F40CF30CF20C890B72298E
:1002F0007808053E86008701720881024131730843
:10030000813B41317408813B41317508813B7D312E
:100310007808033E86008701403FF200413FF3002A
:100320007208F4007308F500F601F7017808053E3D
:10033000860087017408810741317508813D41318C
:100340007608813D41317708813D8B170800780898
:10035000053E86008701403FF200413FF300423FE7
:10036000F400433FF5000430F536F40CF30CF20CC6
:10037000890BB4297808053E86008701720881023E
:1003800041317308813B41317408813B413175082B
:10039000813B7D317808033E86008701403FF200B3
:1003A000413FF3007208F4007308F500F601F7010D
:1003B0007808053E86008701740881074131750879
:1003C000813D41317608813D41317708813D08000A
:1003D000F2007208053E86008701403FA000413FC1
:1003E000A100423FA200433FA3000430A336A20C69
:1003F000A10CA00C890BF6297208033E8600870128
:10040000403FA400413FA5002408A6002508A700FE
:10041000A801A9012008A6022108A73B2208A83BA1
:100420002308A93B2908F6002808F5002708F4004E
:100430002608F3007308A0007408A1007508A20044
:100440007608A30072080F3E86008701010A2C2A55
:10045000A337A20CA10CA00C890B282A2308F600B4
:100460002208F5002108F4002008F300F61B4D2AAD
:100470007608031D452A7508031D452A7408031DC7
:10048000452A80307302031C4D2A0030F6000030EC
:10049000F5000030F4007F30F300F61F612A803051
:1004A0007302FF30743BFF30753BFF30763B03181F
:1004B000612AFF30F600FF30F500FF30F400803095
:1004C000F30073082000A0007208093E860087012F
:1004D0002008810008002508093E860087010108E0
:1004E000803AA60025080E3E8600870125080E3EAC
:1004F000840085010008A7002508103E84008501BE
:10050000000A832AA736890B822A27080102803A2B
:10051000A6020318C62A25080A3E86008701013074
:10052000810741310318810A25080A3E86008701A8
:10053000403FA600413FA7000030270204300319C6
:100540002602031CC22A2508023E8600870181017B
:10055000810A25080A3E860087010030C03FC13F5E
:1005600025080C3E86008701FF30C03FFB30C13FAD
:100570002508860087010108A6002608F2008D31B3
:100580009825823125088D319E2508000330A6006C
:100590002508023E860087012608810025080A3EBC
:1005A000860087010030C03FC13F080025080A3E91
:1005B00086008701403FA600413FA7000030270288
:1005C0000930031926020318EA2A25088631532622
:1005D0008231EE2A250881316121823125080A3EC7
:1005E000860087010130810741310318810A2508FF
:1005F0000A3E86008701403FA600413FA700003029
:100600002702103003192602031C2E2B2508053E55
:1006100086008701403FA600413FA700423FA80057
:10062000433FA9000430A936A80CA70CA60C890BDF
:10063000132B2508033E860087012608C03F2708A4
:10064000C13F2508023E860087018101810A2508F5
:100650000A3E860087010030C03FC13F25088D312A
:100660009E2508002508093E860087010108A6008E
:10067000A701A61BA70325080E3E860087012708B1
:10068000803A803C031D462B2608010203187E2B6E
:10069000200025080A3E860087010130810741318C
:1006A0000318810A25080A3E86008701403FA600FC
:1006B000413FA70000302702043003192602031C23
:1006C0007A2B0330A6002508023E86008701260803
:1006D000810025080A3E860087010030C03FC13FE7
:1006E0002508860087010108A6002608F2008D3142
:1006F0009825833125088D319E2508002000250886
:10070000023E860087018101810A25080A3E860093
:1007100087010030C03FC13F0800A500A4012100AF
:100720001D082000A0002008A10021001E082000B4
:10073000A0002008A2008D31A825833100308B1B3A
:1007400001302000A30025088E319F268331250823
:10075000860087010108A0002008EB00250886001C
:100760008701453FFB00E501E6016C108E314B2609
:100770008331A0002008EA00E501E601EC108B13AC
:100780008431362483312000230C031C8B1303187F
:100790008B178E310A26833121009D18CC2B200027
:1007A0006C1CBF2B210821009D0020002208210085
:1007B0009E002000EC1CE02BFA30A0002008A400D2
:1007C0002408080025080A3E86008701403FA6004D
:1007D000413FA70001302702F43003192602031C11
:1007E000032C2508860087010108863127268331DE
:1007F00020002508860087010108A6002608F200CF
:100800008D31982508002508093E860087010108DA
:10081000803AA60025080E3E8600870125080E3E78
:10082000840085010008A7002508103E840085018A
:10083000000A1B2CA736890B1A2C27080102803AC4
:10084000A602031808000430A6002508023E860010
:1008500087012608810025080A3E860087010030AE
:10086000C03FC13F25088D319E25080021001C088E
:10087000F9001B08F80020006C1808007B08031D15
:100880004E2C832C56088A0055080A0084315F2CB0
:1008900054088A0053080A0084315F2C7B08013910
:1008A000F600F7017708003A0319572C5F2C7608F9
:1008B000003A0319422C013A0319482C5F2C0930E5
:1008C000F6007608F20020006B088E315B2684313A
:1008D000D83E8600870101087B060319802C7B1C0B
:1008E0007B2C0030F6000430F70078087602F80020
:1008F0007908773BF90078082000E5077908E63D9C
:100900000130FB0208007808E5077908E63D6C1421
:100910000800A0002008023E86008701033001067F
:10092000031DAC2C20080A3E860087010130810798
:1009300041310318810A20080A3E8600870116000B
:100940000104031D080020080A3E86008701FF30CD
:10095000C03FFF30C13F08002008023E86008701EB
:1009600005300106031D080020080A3E86008701A5
:100970000130810741310318810A20080A3E8600B0
:100980008701403FF800413FF900003079024030D4
:1009900003197802031C080020080A3E860087011C
:1009A0000030C03FC13F200A8600870101088E3118
:1009B0007D260800AB000930A9002908F2002B08A9
:1009C0008E315B268431D33E2000AA002A08AD0078
:1009D0002D088531B8258431A9002908AC00072DE0
:1009E0002D088E3121268431003A0319242D2D083B
:1009F0008F319B2784312D088D31EB2584312B08D5
:100A0000A9002908F2008731FF278431242D2C0802
:100A1000A900AA01A91BAA032A08003A0319142D48
:100A2000FF3A0319192D242D2908003A0319F02C37
:100A3000242D2908FD3A0319242D033A0319242DE6
:100A4000013A0319242D242D2C080800A2002208A5
:100A5000023E8600870101080319612D2208033E2A
:100A600086008701403FA000413FA1000430A1362D
:100A7000A00C890B372D2208033E86008701200831
:100A8000810241312108813B7F31220A86008701A2
:100A900001088F316D27853176082000A000770886
:100AA000A1000430A136A00C890B522D2208033E70
:100AB000860087012008810741312108813D7F316F
:100AC0000800220A8600870101088F316D27200067
:100AD0002208033E860087017608C03F7708C13FA1
:100AE0000800AB002B0EF0392B07A03EAA002A0805
:100AF000AC002C0A8600870101088F31432785311D
:100B0000003A0319080020002C0A8600870101081A
:100B10008D319C258531003A031908002C088E314F
:100B2000142685312C088131E82185312C08023EBC
:100B30008600870107300102031CA52D2C088600C2
:100B40008701010886312726853120002C08AA005C
:100B50002A08A5002C08023E860087010135413E87
:100B600086008701413F8A00403F0A008531080026
:100B7000A8000530A6002608A70028088E312126E7
:100B80008531003A031DCD2D003008000130A70249
:100B90002708031DCD2DFC300800280883318D2344
:100BA0008531003A031DC62D2808063E86008701C0
:100BB000403F6502F200413F663BF3008F318427DE
:100BC000853100307302653003197202031CEE2D6B
:100BD000200028088D31DD258531C42D200028080E
:100BE0008D31E4258531C42D0034003400340034C7
:100BF0000034003400340034003400340034003455
:100C000000340034643401340434013401340034D9
:100C10000034003400340034003400340034003434
:100C200000340034003432340134043402340234E9
:100C30000034003400340034003400340034003414
:100C400000340034003400343C3401340434F30004
:100C5000730EF0397307A03EF2007208F4007408B6
:100C6000023E8600870181017408053E86008701E7
:100C70000030C03F0030C13FC23FC33F74080A3E4E
:100C8000860087010030C03FC13F74080C3E8600DB
:100C900087010030C03FC13F740A86008701010808
:100CA0008D3197250800A400240A860087010108D9
:100CB0008F316D27863176082000A0007708A100CB
:100CC000A201A3012408053E860087012008C03F39
:100CD0002108C13F2208C23F2308C33F2408053E24
:100CE00086008701043081354131810D4131810D0C
:100CF0004131810D7D31890B732E0800A3007308EB
:100D0000A2007208A1002308F6007608A4000130B2
:100D1000F4020030F53B740A0319750A0319080040
:100D200021088400220885000008F6007608A0004B
:100D30000130A1070030A23D2008F60024088600FB
:100D40008701760881000130F6007608A407872E17
:100D500020006D080319B02E8F311D278631ED015B
:100D60006E080319B92E8731EB278631003A031D2F
:100D7000BB2E003008008E31E62686318D31F925F4
:100D80008631B0003008EE008F310A2786318D3170
:100D9000A1250130080022008D12210035309D0070
:100DA0000A30890BD12E00328C308400003085004F
:100DB0000C30860001308700053080149D008112C0
:100DC0000530890BE12E000021009D140032000047
:100DD00022008C108010080022000C10210001302D
:100DE0009D000A30890BF22E00328D3084000030D5
:100DF00085000C30860001308700353080169D005C
:100E000081120530890B022F000021009D14003251
:100E1000000022008D128012080022008C10210098
:100E200005309D000A30890B132F00328C3084006E
:100E3000003085000C30860001308700013000143E
:100E40009D0081120530890B232F000021009D1485
:100E50000032000022000C100010080022008D1645
:100E6000210035309D000A30890B342F00328C3040
:100E70008400003085000C3086000130870005308A
:100E800080149D0081160530890B442F000021003D
:100E90009D140032000022008C14801008002200F3
:100EA0000C14210001309D000A30890B552F0032AF
:100EB0008D308400003085000C30860001308700C2
:100EC000353080169D0081160530890B652F000096
:100ED00021009D140032000022008D1680120800AF
:100EE00022008C14210005309D000A30890B762FDA
:100EF00000328C308400003085000C3086000130D8
:100F00008700013000149D0081160530890B862F63
:100F1000000021009D140032000022000C1400107B
:100F20000800083023009F0080309D0024309E0080
:100F300044309B009C010030F2000030F3008D3102
:100F4000BD2587310030F2000030F3008D31B2252D
:100F500087310030F2000030F3008D31AD25E8011B
:100F60000800F300033073020318CE2FF201F20AD7
:100F7000730EF0397307A23E860087010330010625
:100F80000319CC2F730EF0397307A23E8600870138
:100F900004300106031DF201720808000030080049
:100FA00000344F340734EC34063420340034003439
:100FB000003401342E340734CB340634203400346A
:100FC000003400340234703407340D3407342034D4
:100FD000003400340034AF012F088431DA24873123
:100FE000003A0319F52F003008000130AE002E083A
:100FF000AF0703302F02031CEC2F0130080008005C
:101B2C000800080008000800E70108000130080060
:101B3C00E701E70A08008F31302708001630210032
:101B4C009700080021009D01A0309E00080073083A
:101B5C00E0007208DF0008007308E2007208E10080
:101B6C00080073082000DC007208DB000800730812
:101B7C002000E4007208E3000800640080010131D9
:101B8C00890BC42D0034FE0012001E00FE0BCA2D62
:101B9C000034F200111ED02D720823009A000800A8
:101BAC00F2007208083E8600870181100800F200DE
:101BBC007208083E8600870101150800F2007208C1
:101BCC00083E8600870101110800F2007208083EE9
:101BDC00860087018114080070302100990098015B
:101BEC00220096010800F30180310220F2007208F5
:101BFC00F304730808005A08F1005908F0008E31FC
:101C0C002E26EE01EE0A08006A08F2007208F300B4
:101C1C007308031908000130F3020E2EA3008B1F6A
:101C2C001D2E8B132308853126258B1708002308BE
:101C3C00853126250800F200720803192C2E720833
:101C4C00083E8600870101080139080000300800B1
:101C5C00181D372E1810710897007008960018146C
:101C6C00080071089700700896000800A10121086F
:101C7C008E318E268E3101302000A0002008A10765
:101C8C0003302102031808003D2E7A1C4F2E7A36A1
:101C9C00552E7A36F2007208FA007A08B43AF2003D
:101CAC007208FA007A080F390800F500F401751C67
:101CBC00632E7208F3007308F4070310F20D03107F
:101CCC00F50C7508031D5D2E74080800F700033031
:101CDC007702031808000930F6007608F20077083E
:101CEC008E315B26DB3E8600870101100800F70071
:101CFC0003307702031808000930F6007608F2006A
:101D0C0077088E315B26DB3E8600870101140800C4
:101D1C00F90079088E317D268E310930F80078086B
:101D2C00F20079088E315B268E31D33E8D31D6256B
:101D3C000800F200720A86008701403FD500413F3F
:101D4C00D6007208033E86008701403FD300413F16
:101D5C00D400080011105E08F1005D08F0008E310F
:101D6C002E268E315B085C04031908005C088A007F
:101D7C005B080A008E3108000130F2020030F33BA0
:101D8C00720A0319730A031908000B30F40062304D
:101D9C00890BCE2EF40BCE2E0032C22E25088131AB
:101DAC0061218E3125080A3E860087010030C03F34
:101DBC00C13F250A8600870101088E316C26080078
:101DCC008D319A258E31AE012E08853171258E31DB
:101DDC0001302000AD002D08AE0703302E02031891
:101DEC000800EA2E8F31CC278E318D31F2258E31C1
:101DFC008D31A4258E318F3157278E318731912724
:101E0C008E318F311D270800D330F3007308F40096
:101E1C00E530F30074087302031C080074088D315C
:101E2C00D6258F310930F3007308F4070E2F8E314D
:101E3C003C268F318F31B2278F318F310A278F316A
:101E4C008D31A8258F310130F2000E30F3008D3129
:101E5C00B72508002000A201220EF0392207A03E6F
:101E6C00843189248F3101302000A1002108A20780
:101E7C000330220203180800322FF70003307702D8
:101E8C000318552F0930F6007608F20077088E31CA
:101E9C005B26DB3E86008701010C0139080000300F
:101EAC0008002000990163309700C0309600111093
:101EBC001708DE001608DD00210011149630F20020
:101ECC000D30F3008D31B725053098000800F9006E
:101EDC00033079020318812F0930F8007808F200DA
:101EEC0079088E315B26D93E86008701403FF6008B
:101EFC00413FF7000800F601F70108007308803A2B
:101F0C00F40080307402031D8D2F0130720203180F
:101F1C0008007209F4007309F500F40A0319F50AB4
:101F2C007408F2007508F3000800F2008B1FA92F4B
:101F3C008B137208063E860087016508C03F660851
:101F4C00C13F8B1708007208063E860087016508A2
:101F5C00C03F6608C13F0800F430F2008530F30042
:101F6C003330F4000030F500A03086317E268F31FE
:101F7C00F8017808863127268F310130F700770871
:101F8C00F8070330780203180800BF2F22009001D5
:101F9C008C018D018E01083021009000DC308C000A
:101FAC00C0308D00BE308E0023008D011C308C00A3
:101FBC00240090018D012100951722009D0108003D
:101FCC00D6340234D234003432340334E2340334A1
:101FDC006B340234D4340E3499340D3498340D34BB
:101FEC0098340D34EC3406344F340734FF34073452
:041FFC00BF34633457
:020000040001F9
:08000000FF3FFF3FFF3FFF3F00
:04000E00E43DFF3F8F
:00000001FF
